:020000040800F2
:10000000D808002089010008910100089301000828
:100010009501000897010008990100080000000000
:100020000000000000000000000000009B0100082C
:100030009D010008000000009F010008A1010008C8
:10004000A3010008A3010008A3010008A301000800
:10005000A3010008A3010008A3010008A3010008F0
:10006000A3010008A3010008A3010008C9070008B4
:10007000A3010008A3010008A3010008A3010008D0
:10008000A3010008A3010008A3010008A3010008C0
:10009000A3010008A3010008A30100080F0900083C
:1000A000A3010008A3010008A3010008A3010008A0
:1000B000A5110008A3010008A3010008A30100087E
:1000C000A3010008A3010008A3010008A301000880
:1000D000A3010008A3010008A3010008A301000870
:1000E000A3010008A3010008A301000800F002F822
:1000F00000F03AF80AA090E8000C82448344AAF188
:100100000107DA4501D100F02FF8AFF2090EBAE885
:100110000F0013F0010F18BFFB1A43F0010318473B
:10012000981F0000B81F0000103A24BF78C878C19B
:10013000FAD8520724BF30C830C144BF04680C60ED
:10014000704700000023002400250026103A28BF35
:1001500078C1FBD8520728BF30C148BF0B60704739
:100160001FB51FBD10B510BD00F068F81146FFF7B0
:10017000F7FF01F0EBFA00F086F803B4FFF7F2FFA7
:1001800003BC00F089F8000009488047094800478F
:10019000FEE7FEE7FEE7FEE7FEE7FEE7FEE7FEE737
:1001A000FEE7FEE704480549054A064B7047000094
:1001B0002D100008ED000008D8020020D80800200B
:1001C000D8040020D804002010B5203AC0F00B80DD
:1001D000B1E81850203AA0E81850B1E81850A0E84B
:1001E0001850BFF4F5AF5FEA027C24BFB1E81850A5
:1001F000A0E8185044BF18C918C0BDE810405FEA15
:10020000827C24BF51F8043B40F8043B08BF704790
:10021000D20728BF31F8023B48BF11F8012B28BF95
:1002200020F8023B48BF00F8012B70477047704729
:100230007047000000487047740200207546FFF7C1
:10024000F9FFAE4605006946534620F00700854693
:1002500018B020B5FFF7A6FFBDE820404FF000061C
:100260004FF000074FF000084FF0000B21F007019E
:10027000AC46ACE8C009ACE8C009ACE8C009ACE8E1
:10028000C0098D46704710B50446AFF30080204684
:10029000BDE81040FFF771BF01491820ABBEFEE773
:1002A00026000200704721B1826842F0010282609C
:1002B00003E0826822F001028260704721B1826807
:1002C00042F48072826003E0826822F4807282606D
:1002D0007047000000B593B0002000F08BFC0121B6
:1002E00040F2092000F0B2FC0121084600F08EFC2B
:1002F00001200590002004900C903D4803904FF49D
:10030000806009908020079020200A903948029050
:1003100080150890002006904FF400500B900B20A1
:100320008DF8040002208DF8050000208DF80600ED
:1003300001208DF8070001A800F0BCFB012202217A
:100340002D4800F0BDFA02A92B4800F0C2FA0220A5
:10035000ADF8480000208DF84B0012A9274800F0A6
:1003600011FB01208DF83900002010904FF460201F
:100370000F9000200D9001208DF844008DF838007A
:100380000DA91C484C3800F04FF807230122092121
:1003900018484C3800F070F8012116484C38FFF727
:1003A00082FF012113484C38FFF788FF11484C3871
:1003B00000F0BEF800BF0F484C3800F02BF80028C2
:1003C000F9D10C484C3800F0C3F800BF09484C384C
:1003D00000F016F80028F9D1012106484C3800F049
:1003E000ACF80121044800F05FFA13B000BD000032
:1003F000080000204C24014008000240000C01408D
:10040000014600208A6802F004020AB1012000E0DF
:1004100000207047014600208A6802F008020AB1F5
:10042000012000E00020704730B502460020002384
:1004300050680F4C20400D790C6844EA0524204395
:10044000506090680B4C2040D1E902542C434D7908
:1004500044EA450420439060D06A20F470000C7C8C
:10046000641EE4B2234340EA0350D06230BD000072
:10047000FFFEF0FFFDF7F1FFF0B504460D4600204A
:100480000021092D11DDE068A5F10A0606EB4607FB
:10049000072606FA07F18843A5F10A0606EB460689
:1004A00003FA06F10843E0600CE0206905EB45071C
:1004B000072606FA07F1884305EB450603FA06F11D
:1004C00008432061072A0FDA606B561E06EB860789
:1004D0001F2606FA07F18843561E06EB860605FA24
:1004E00006F10843606322E00D2A0FDA206BD61F65
:1004F00006EB86071F2606FA07F18843D61F06EB90
:10050000860605FA06F10843206310E0E06AA2F1CE
:100510000D0606EB86071F2606FA07F18843A2F1AF
:100520000D0606EB860605FA06F10843E062F0BD0B
:10053000816841F008018160704721B1826842F40E
:10054000A002826003E0826822F4A0028260704709
:10055000816841F0040181607047000010B50348D4
:1005600000F09BFAC0F3C21010BD0000000C014067
:1005700010B504464D48007801280AD104EB440028
:100580004B4901EB40004B4902680A608088888033
:1005900009E004EB4400484901EB4000454902688A
:1005A0000A60808888804348007878B16022002102
:1005B000424801F030F801220021404800F08EFE50
:1005C000042200213D4800F098FE17E00022114669
:1005D0003A4800F083FE3748407850B1502200215D
:1005E000364801F018F804220021344800F085FE56
:1005F00004E000221146314800F07FFE2D4880784B
:1006000078B1602204212D4801F005F8012204216F
:100610002A4800F063FE04221146284800F06DFECF
:1006200017E000220421254800F058FE2148C07838
:1006300050B150220421214800F0EDFF0422114660
:100640001E4800F05AFE04E0002204211B4800F07E
:1006500054FE1848007978B160220821174800F04C
:10066000DAFF01220821154800F038FE0422082193
:10067000124800F042FE17E0002208210F4800F067
:100680002DFE0C48407950B1502208210B4800F053
:10069000C2FF04220821094800F02FFE04E00022D6
:1006A0000821064800F029FE10BD000000000020CF
:1006B000E21E000801000020121F0008002C01406B
:1006C00000B58DB001210C2000F0C0FA4FF460405D
:1006D000ADF8300003208DF8320018208DF833007B
:1006E0000CA9364800F04EF94FF4E060ADF8300048
:1006F00003208DF8320018208DF833000CA9304803
:1007000000F040F90121C80200F0A0FA0020ADF885
:100710002400ADF8260041F29410ADF82800002026
:10072000ADF82A008DF82C0009A9264800F0BCFF7E
:100730000020ADF814000120ADF816000420ADF83B
:1007400018000020ADF81A00ADF81C00ADF81E002E
:10075000ADF82000ADF8220005A91A4800F026FEE9
:1007600005A9184800F06EFE05A9164800F0BCFE69
:100770004FF40060ADF804004010ADF80600002012
:10078000ADF808004820ADF80A004FF48040ADF8FD
:1007900010008010ADF80C000020ADF80E0001A98B
:1007A000084800F08BFD0121064800F0BBFD012147
:1007B000044800F0C3FD0DB000BD0000000C014076
:1007C00000080140002C014010B5022000F05EF846
:1007D00000220221224800F073F82248007870BB02
:1007E0002149088801F028FA2049214A128841F855
:1007F000220008461E4A128850F822101D48006840
:1008000001F0BEF81B49086019480088632805DA22
:1008100017480088401C164908801AE016491548F8
:10082000006801F00FF9044601F0CEF91349088081
:1008300001200C49087000201149088009E0FFE7F9
:100840000949088801F0F8F90E49086001200E49AD
:10085000087001220221024800F032F810BD0000A9
:10086000080002400A00002008000020E4000020E8
:100870000C000020180000200000C84226000020C4
:1008800024000020200000202800002000F08051DB
:1008900011B10349086001E0024948607047000057
:1008A000040402400000024021B1026842F001024B
:1008B000026004E002684FF6FE731A40026070475F
:1008C0001AB103680B43036002E003688B430360C3
:1008D000704710B50022026847F6F0739A430C6A1D
:1008E0008B6823430C6923434C6923438C6923435E
:1008F000CC6923434C6A23438C6A23431A43026026
:10090000CB6843600B6883604B68C36010BD10B553
:10091000802000F023F804464FF4807000F01EF8A9
:1009200004434FF4007000F019F804437CB18020B8
:1009300000F00EF84FF4807000F00AF84FF40070E9
:1009400000F006F8FFF70AFE0446FFF711FE10BD9F
:10095000014908607047000014040140014600206E
:100960000022074B1B6803EA0102054B14331B6886
:100970000B4013B10AB1012000E0002070470000D5
:10098000000401402DE9F041024600250026002028
:1009900000230024002791F803C00CF00F0591F804
:1009A00003C00CF0100CBCF1000F03D091F802C092
:1009B0004CEA050591F800C0BCF1000F31D0146875
:1009C00000202BE04FF0010C0CFA00F3B1F800C04E
:1009D0000CEA03069E4220D183004FF00F0C0CFA64
:1009E00003F7BC4305FA03FC4CEA040491F803C086
:1009F000BCF1280F06D14FF0010C0CFA00FCC2F834
:100A000014C00AE091F803C0BCF1480F05D14FF0C3
:100A1000010C0CFA00FCC2F810C0401C0828D1D30D
:100A20001460B1F800C0BCF1FF0F34DD5468002041
:100A30002EE000F1080C4FF0010808FA0CF3B1F8B1
:100A400000C00CEA03069E4221D183004FF00F0C38
:100A50000CFA03F7BC4305FA03FC4CEA040491F8D2
:100A600003C0BCF1280F05D100F1080C08FA0CF8FE
:100A7000C2F8148091F803C0BCF1480F07D100F10F
:100A8000080C4FF0010808FA0CF8C2F81080401C5E
:100A90000828CED35460BDE8F0810146886880B252
:100AA00070474FF6FF710180022181700421C170EF
:100AB0007047000070B5002100230F22C47804B3F2
:100AC000154C246804F4E064C4F5E064210AC1F123
:100AD0000403CA40447804FA03F1847814402143A3
:100AE00009010E4C0678A155047804F01F05012475
:100AF000AC4005786D11AD0005F1E025C5F8004169
:100B000009E0047804F01F050124AC40044D067888
:100B1000761145F8264070BD0CED00E000E400E0E1
:100B200080E100E000B587B00121042000F08EF8DC
:100B300006A8FFF7B6FF0120ADF8180004208DF8D5
:100B40001B0002208DF81A0006A92948FFF71AFF9A
:100B50000121084600F06AF84FF6FF70ADF810006A
:100B60000220ADF80C000020ADF81200ADF80E0028
:100B70008DF8140003A94FF0804000F095FD00208F
:100B8000ADF800000F20ADF808000020ADF802001D
:100B9000ADF806000120ADF804006946800700F0BA
:100BA000F3FC5021880600F02DFD0421080700F019
:100BB0005BFD01220221480700F0EFFB0122042126
:100BC000080700F0EAFB0121880700F0ABFB1C20BE
:100BD000002809DB00F01F02012191404209920028
:100BE00002F1E022C2F8001100BF07B000BD000012
:100BF0000008014001460020034A506820F44040AC
:100C000008435060704700000010024029B1064AB6
:100C100052690243044B5A6104E0034A5269824319
:100C2000014B5A61704700000010024029B1064A8A
:100C3000D2690243044BDA6104E0034AD269824379
:100C4000014BDA61704700000010024029B1064AEA
:100C500092690243044B9A6104E0034A9269824319
:100C6000014B9A6170470000001002400F48006875
:100C700040F001000D490860084640680C490840F2
:100C80000A494860084600680A4908400749086060
:100C90000846006820F4802008600846406820F478
:100CA000FE0048604FF41F0088607047001002404B
:100CB0000000FFF8FFFFF6FE30B5002100220024FF
:100CC00000232D4D6D6805F00C0121B1042905D0DC
:100CD000082923D105E0294D056022E0274D056054
:100CE0001FE0254D6D6805F47012234D6D6805F405
:100CF0008034022505EB92421CB9214D5543056015
:100D00000BE01D4D6D6805F400351DB11C4D5543BC
:100D1000056002E0194D5543056002E0174D05607E
:100D200000BF00BF144D6D6805F0F0010909154DB5
:100D30006B5C0568DD4045600F4D6D6805F4E06152
:100D4000090A104D6B5C4568DD4085600A4D6D6891
:100D500005F46051C90A0B4D6B5C4568DD40C56008
:100D6000054D6D6805F44041890B074D6B5CC56806
:100D7000B5FBF3F5056130BD0010024000127A00AA
:100D800000093D00D0000020E000002010B5014621
:100D90000022002300204A11012A02D1094C2368B5
:100DA00006E0022A02D1074C236A01E0054C636A7F
:100DB00001F01F02012494401C400CB1012000E00E
:100DC000002010BD001002400248406800F00C00F6
:100DD000704700000010024001460020034A50689E
:100DE00020F0F000084350607047000000100240FF
:100DF0001149096821F480310F4A116011460968D0
:100E000021F480211160B0F5803F03D0B0F5802F30
:100E10000ED106E00849096841F48031064A1160A4
:100E200007E00549096841F4A021034A116000E088
:100E300000BF00BF704700000010024001460020C4
:100E4000034A506820F4E060084350607047000097
:100E50000010024001460020034A506820F4605010
:100E600040EAC10050607047001002400149086626
:100E7000704700000000424202460020044B5868C0
:100E800020F47C1042EA01031843014B586070477C
:100E90000010024001460020034A506820F0030081
:100EA00008435060704700000010024038B5002031
:100EB00000900024002500BF3120FFF767FF0546A2
:100EC0000098401C00900098B0F5A06F01D0002D54
:100ED000F2D03120FFF75AFF08B1012400E00024CE
:100EE000204638BD10B500F031F810BD10B5FFF741
:100EF000BDFE4FF48030FFF77BFFFFF7D7FF0446BE
:100F0000012C1FD10020FFF767FF0020FFF7A2FF91
:100F1000A002FFF793FF4FF4E0112004FFF7ACFFAE
:100F20000120FFF7A3FF00BF3920FFF72FFF0028A4
:100F3000FAD00220FFF7AEFF00BFFFF745FF0828F9
:100F4000FBD101E000BFFEE710BD00000CB50020A2
:100F5000019000903348006840F4803031490860C7
:100F600000BF3048006800F4003000900198401C39
:100F70000190009818B90198B0F5A06FF1D12948F7
:100F8000006800F4003010B10120009001E0002062
:100F900000900098012843D12348006840F01000D9
:100FA000214908600846006820F0030008600846F0
:100FB000006840F0020008601A484068194948601B
:100FC0000846406848600846406840F480604860D1
:100FD0000846406820F47C1048600846406840F4A9
:100FE000E81048600846006840F08070086000BF64
:100FF0000C48006800F000700028F9D009484068EB
:1010000020F00300074948600846406840F00200AD
:10101000486000BF0348406800F00C000828F9D180
:101020000CBD0000001002400020024010B5134823
:10103000006840F001001149086008464068104906
:1010400008400E494860084600680E4908400B49B0
:1010500008600846006820F4802008600846406860
:1010600020F4FE0048604FF41F008860FFF73AFF4D
:101070004FF000600449086010BD000000100240FD
:101080000000FFF8FFFFF6FE08ED00E0F0B50C46AB
:10109000154600220021068C4FF6FE773E4006845E
:1010A000028B018C4FF60C7632407E1C06EA03164A
:1010B0002E433243104EB0420ED0104EB0420BD0F1
:1010C000B0F1804F08D00E4EB04205D00D4EB04268
:1010D00002D00D4EB04206D14FF6FD76314044F0BD
:1010E0000106314305E04FF6F576314044F0010644
:1010F000314302830184F0BD002C014000340140E3
:101100000004004000080040000C0040F0B50C4610
:101110001546002200210026078C4FF6EF7C07EAD7
:101120000C070784028B018C4FF6FF7707EA041641
:1011300040F6FF473A404FF6FF7707EA03373A4356
:101140004FF6FF7707EA05273A43114FB8420ED012
:10115000104FB8420BD0B0F1804F08D00E4FB842BC
:1011600005D00E4FB84202D00D4FB84206D14FF60F
:10117000DF77394046F01007394305E04FF65F77D7
:10118000394044F01007394302830184F0BD000068
:10119000002C0140003401400004004000080040E1
:1011A000000C004070B50221480700F0E5F8002867
:1011B00057D00221480700F0B2F81C20002817DBA6
:1011C00000F01F0201219140264A430942F82310F2
:1011D00000BF00BF00BFBFF34F8F00BF00BF00BF05
:1011E00000BF00BF00BFBFF36F8F00BF00BF00BFD5
:1011F00000BF4FF0804000F0B0F81B4908804FF06E
:10120000804000F0ADF8194908801748008800F0C8
:1012100013FD05461548008800F00EFD06462946D8
:1012200000F010FC0446124900F01AFD1149086054
:101230001C20002809DB00F01F0201219140420917
:10124000920002F1E022C2F8001100BF4FF40071D9
:10125000480500F088F820B14FF40071480500F00F
:101260005BF870BD80E100E04000002042000020FB
:101270000000B443480000200EB501210420FFF710
:10128000D5FC4FF6FF70ADF8040044F24F60ADF8A6
:1012900000004FF40070ADF806000020ADF8020029
:1012A0008DF808006946044800F0FEF90121024863
:1012B00000F038F80EBD0000000800400A884B8896
:1012C0001A438B881A43CB881A430B891A434B89DC
:1012D0001A438B891A43A0F84420704730B5002385
:1012E00001248C40A3B2048C9C430484048C02FA35
:1012F00001F5ADB22C43048430BD30B50023042485
:101300008C40A3B2048C9C430484048C02FA01F543
:10131000ADB22C43048430BDCA4302827047CA4335
:101320000282704721B1028842F00102028004E08B
:1013300002884FF6FE731A400280704731B1B0F850
:10134000442042F40042A0F8442005E0B0F84420D4
:10135000C2F30E02A0F8442070470146888E704701
:101360000146088F704702460020138A0B400BB1DC
:10137000012000E00020704730B502460020002325
:101380000024158A05EA0103958905EA010413B1D1
:101390000CB1012000E0002030BD1AB183890B435D
:1013A000838102E083898B438381704770B5002479
:1013B00000220023058C4FF6FE7635400584028C12
:1013C0008388048B4FF68F752C40B51E2C400D88FA
:1013D0002C43751E2A400D892A434D882A43144DFB
:1013E000A8420BD0134DA84208D0134DA84205D0F7
:1013F000124DA84202D0124DA84213D14FF6F775F4
:101400002A404D892A434FF6FB752A408D882A438E
:101410004FF6FF652B404FF6FF552B408D892B4330
:10142000CD892B4383800483CD888586028470BD5B
:10143000002C0140003401400040014000440140C4
:101440000048014070B5002400220023058C4FF6AF
:10145000EF7635400584028C8388048B48F6FF754F
:101460002C404FF6FF452C400D884FF6FF7606EADC
:1014700005252C434FF6DF752A400D8906EA051530
:101480002A434D8806EA05152A43154DA84202D085
:10149000144DA8421DD14FF67F752A404D894FF655
:1014A000FF7606EA05152A434FF6BF752A408D8858
:1014B00006EA05152A434FF6FF352B404FF2FF751C
:1014C0002B408D8906EA85052B43CD8906EA8505E3
:1014D0002B4383800483CD880587028470BD000080
:1014E000002C01400034014070B50024002200238C
:1014F000058C4FF6FF6635400584028C8388848B0B
:101500004FF68F752C404FF6FC752C400D882C4300
:101510004FF6FF552A400D894FF6FF7606EA05255E
:101520002A434D8806EA05252A43154DA84202D0D4
:10153000144DA8421DD14FF2FF752A404D894FF638
:10154000FF7606EA05252A434FF6FF352A408D88A7
:1015500006EA05252A434EF6FF752B404DF6FF752A
:101560002B408D8906EA05152B43CD8906EA051522
:101570002B4383808483CD888587028470BD0000DF
:10158000002C0140003401402DE9F04105460C4695
:1015900000260127608808B9022600E00026A088FE
:1015A000012801D1022700E001272088A0B9238962
:1015B000A28861882846FFF769FDE188284600F087
:1015C0005CF823893A4631462846FFF79FFDE188BB
:1015D000284600F05BF813E02389A288618828463A
:1015E000FFF794FDE188284600F050F823893A4639
:1015F00031462846FFF74AFDE188284600F03DF8CD
:10160000BDE8F0810A46002101894FF68F73194029
:1016100011430181704770B503460020002418462D
:10162000183001258D40ACB21D8CA5431D8409B135
:10163000082909D100EB6100056825F070050560F7
:101640000568154305600EE00D1FC5F34E052844DF
:10165000056825F4E045056005684FF6FF7606EA63
:1016600002263543056070BD02894FF6F8731A40B3
:10167000028102890A4302817047028B4FF6F3739D
:101680001A400283028B0A4302837047028B4FF297
:10169000FF331A400283028B4FF6FF7303EA0123E4
:1016A0001A43028370470000002202881D4B9842B3
:1016B0000ED01D4B98420BD0B0F1804F08D01B4B81
:1016C000984205D01A4B984202D01A4B984204D146
:1016D0004FF68F731A404B881A43174B984207D026
:1016E000164B984204D04FF6FF431A40CB881A435A
:1016F00002808B8883850B8803850A4B98420BD028
:10170000094B984208D00E4B984205D00D4B984299
:1017100002D00D4B984201D10B7A038601238382BC
:1017200070470000002C01400034014000040040DC
:1017300000080040000C0040001000400014004071
:10174000004001400044014000480140E0B0FFF784
:10175000CDFBFFF7E7F9FEF7BDFDFFF78DFDFEF7C7
:10176000AFFF602200216548FFF755FF602204218A
:101770006248FFF750FF602208216048FFF74BFFE7
:10178000012200215D48FFF7A9FD042200215B48EA
:10179000FFF7B3FD012204215848FFF79FFD042203
:1017A00011465648FFF7A9FD012208215348FFF7CB
:1017B00095FD042208215148FFF79FFD5BA8FFF724
:1017C0007BFA4F495F9808604E495C9808604E4923
:1017D0005D9808604D495E9808604D495B980860C7
:1017E00041F294104549343108804FF4FA60091DE4
:1017F000088040F6B830091D088000BF4FF4B4726D
:10180000444901A8FEF7E0FC00BF4FF4B470424920
:10181000088008460088032190FBF1F0C4B2002044
:101820003E4908800846008820443D490880084613
:10183000008820443B49088037480088401E3649CC
:1018400008803948394908604FF47A7000F086F80A
:1018500052E037480068401C354908603548007838
:1018600001282FD13448354A128850F822103448C4
:10187000006800F0C1FA054632480168284600F0C9
:101880007FF82F49086030492D48006800F0DAF8E9
:10189000054600F099F92D4908802A480068264934
:1018A000264A128841F8220024480088401C234917
:1018B000088008460088642801DB0020088000209A
:1018C0001C49087022480068224908601F480088A7
:1018D0004FF4B471484340F6FF7190FBF1F5284690
:1018E00000F092F9114908601A4801680F48006831
:1018F00000F082FA18490860ABE70000002C0140B4
:101900006000002064000020680000206C000020BF
:1019100070000020441F0008300000202A00002032
:101920002C0000202E0000200000F0413400002098
:101930003C00002028000020E400002024000020BB
:1019400018000020200000200000C84226000020CF
:101950004800002050000020380000200649098877
:10196000064A116000BF04490988044A1268891AAE
:10197000B1EB800FF7D37047240800407C000020B3
:1019800090EA010F48BF81F0004100F13C82421A09
:101990003CBF801A89184FEAD0524FF07F4C1CEAA6
:1019A000410FA2EBD15318BF9CEA026F00F03B80BD
:1019B0004FF0004C4CEA00204CEA012121FA03FCD4
:1019C00010EB0C0C1ED202F1FF325FEA1C2040EB40
:1019D000C25038BF70471CF07F0F4FEA400C18BF51
:1019E000BCF17F4F38BF7047C3F12003994008BF57
:1019F00020F00100BCF17F4F38BF7047A0F1C0401C
:101A000000F0F5B94FEA3C00000A40EBC25028BF95
:101A10001CF0FF0F4FEA400CE6D018BFBCF17F4F1F
:101A200038BF7047EAE79CEA026F05D010EA5C0F06
:101A300008BF00F00040704710B500F092F900BFF9
:101A400064FBBE3E4FF47F0C1CEAD0121EBF1CEAA2
:101A5000D11392EA0C0F93EA0C0F00F0858090EA04
:101A6000010F48BF42F4807240F4000C41F40000C2
:101A70002CF07F4120F07F4000B58142A2EB0302B1
:101A80000FF2081CACEB504EC0F100009EF800E0D5
:101A90004FEA4E0E00FB0EFC38BF49004FEA2C1CEB
:101AA00002F5FA020CFB0EF34FEACE1E4FEA112CA0
:101AB0004FEAC1210EEB635E42EB22420EFB0CFCAF
:101AC0004FEA1C5300FB03114FEA112C4FEA01317E
:101AD0000EFB0CFC4FEADC4C00FB0C11C14228BF92
:101AE00009184CEB03335DF804EB10EB410143EBB9
:101AF000C250B2F57C0F38BF704729D512F0F00FF5
:101B00001CBF00F1C04000F000407047008182839C
:101B10008485868788898B8C8D8E8F9192939596FC
:101B200097999A9C9D9FA0A2A3A5A7A8AAACAEB086
:101B3000B2B3B5B7B9BCBEC0C2C5C7C9CCCED1D48B
:101B4000D7D9DCDFE2E6E9ECF0F3F7FAFE000000BB
:101B50004FEA400C0CF1807CBCF17E4F28BF7047EF
:101B6000B0F1C04000F043B990EA010F0CEAD11384
:101B700048BF42F48072624538BF634507D213F410
:101B80007F0F16D080EA010000F00040704710B5CA
:101B900000F0E7F8097EFC3E00F005B880EA01009D
:101BA00000F00040704780EA010000F0004000F0C3
:101BB0001EB912F47F0F04BF0248704780EA01008B
:101BC00000F015B90000C07FC10DD1F19E0206DB07
:101BD0004FEA002343F0004323FA02F0704700422B
:101BE00007D54FEA4001B1F1FE4F02D24FF000009D
:101BF000704710B500F0B5F8499224800020704776
:101C00006FEA20007047000010F0004148BF4042DA
:101C1000B0FA80F310FA03F2C3F19D030BD051EA3E
:101C2000C35101EB1220530638BF704700F1010089
:101C300008BF20F001007047B0FA80F310FA03F2F9
:101C4000C3F19D030AD0D90501EB1220530638BF1A
:101C5000704700F1010008BF20F00100704700004C
:101C60004FF47F0C1CEAD0121EBF1CEAD11392EA7B
:101C70000C0F93EA0C0F00F0478090EA010F48BF69
:101C800042F480724FF0004C4CEA00204CEA0121F3
:101C900002EB0302A0FB0113A2F50002002918BF0A
:101CA00043F001035B0028BF4FEA330342EB2242BB
:101CB0005FEA132C4CEBC2502EBFBCEB436FB2F566
:101CC0007C0F70474FEA036CBCF1004F08BF20F057
:101CD0000100B2F57C0F38BF70470BD582F0FF02D0
:101CE00012F5803FC8BF704700F1C040D8BF00F078
:101CF0000040704700F5000C5FEA4C0C48BF70478D
:101D0000B0F1C04000F073B890EA010F0CEAD113B3
:101D100048BF42F48072624538BF634504D280EA0E
:101D2000010000F00040704710B500F01AF800BF45
:101D30008900013E00F007B800F009B85FEA410CE5
:101D40005FEA1C6C08D080EA010000F050B85FEA3E
:101D5000400C5FEA1C6CF6D14FF00040A0F580000B
:101D600070470EF1020E2EF0030E5EF8044B244273
:101D700004D44FEA4102B2F17F4F11D84FEA400339
:101D8000B3F17F4F0CD80ED14FEAD07CB2F17F4F28
:101D90000CEB4C0C0CF1020C08BF4CEBD17C04E0BA
:101DA0004FF0080C01E04FEAD17C0CEB4C0324FA15
:101DB00003F404F00704B4F1040C06D20EEB840C17
:101DC000BDE810404CF0010C6047DFE80CF007085C
:101DD00002024FF00040A0F5800010BD084642000E
:101DE00018BFD2F1807288BF00F0004010BDFF2103
:101DF00041EAD050C005704790EA010F48BF81F01A
:101E000000413FF5C4AD421A04D882F00042A0EB75
:101E1000020011444FEAD0524FF07F4C1CEA410FB0
:101E2000A2EBD15318BF9CEA026F4AD04FF0004C8E
:101E30004CEA00204CEA012121FA03FCB0EB0C0C27
:101E40000FD412F0FE0F36D05FEA4C001DD5001201
:101E500040EBC25038BF70471CF03F0F18BF7047AF
:101E60000BE0A2F101025FEA1C2040EBC25038BF38
:101E700070471CF07F0F18BF7047C3F120039940D3
:101E800014BF401E20F00100704780084FEA122363
:101E900008BF7047B0FA80FCA2EB0C02CCF1280C12
:101EA00060FA0CF093EA122F04BF00EBC2507047A7
:101EB0004FEAC3707047130A5FEADC1008BF70472F
:101EC000F6E79CEA026F04D010EA5C0F08BF00201E
:101ED000704710B5FFF745FF40DFF63E81F0004048
:101EE0007047000000000000000100000100010038
:101EF00000010000000000010100000001000001DD
:101F000000010100000001000000000100000000CD
:101F100000000000000000000100000000010001BE
:101F200001000000000001000001000000010100AC
:101F3000010000010000000100000100000000009D
:101F4000000000008084888C8F93979B9FA2A6AA94
:101F5000AEB2B5B9BDC0C4C8CBCFD3D6DADDE1E4EB
:101F6000E8EBEEEFF0F1F2F3F4F5F6F7F8F8F9FA42
:101F7000FAFBFCFCFDFDFDFEFEFEFFFFFFFFFFFF89
:101F8000FFFFFFFFFFFFFFFEFEFEFDFDFDFCFCFB74
:101F9000FAFAF9F8F8F7F6F5F4F3F2F1F0EFEEEFFC
:101FA000F0F1F2F3F4F5F6F7F8F8F9FAFAFBFCFCC5
:101FB000FDFDFDFEFEFEFFFFFFFFFFFFFFFFFFFF3A
:101FC000FFFFFFFEFEFEFDFDFDFCFCFBFAFAF9F84B
:101FD000F8F7F6F5F4F3F2F1F0EFEEEBE8E4E1DD1B
:101FE000DAD6D3CFCBC8C4C0BDB9B5B2AEAAA6A20B
:101FF0009F9B97938F8C8884807C7874716D6965C2
:10200000615E5A56524E4B4743403C3835312D2A7B
:1020100026231F1C18151211100F0E0D0C0B0A0988
:10202000080807060605040403030302020201016F
:102030000101010101010101010101020202030389
:10204000030404050606070808090A0B0C0D0E0F09
:1020500010111211100F0E0D0C0B0A0908080706BB
:102060000605040403030302020201010101010148
:10207000010101010101010202020303030404053D
:102080000606070808090A0B0C0D0E0F1011121591
:10209000181C1F23262A2D3135383C4043474B4E10
:1020A00052565A5E6165696D7174787C9020BB02EE
:1020B0002C24BB02C01B3200D820000800000020E6
:1020C000E400000028010008BC210008E400002012
:1020D000F4070000440100080000000000000000B8
:1020E000AAAA00000000000000000000000000009C
:1020F00000000000000000000000000000000000E0
:1021000000000000000000000000000000000000CF
:1021100000000000000000000000000000000000BF
:1021200000000000000000000000000000000000AF
:10213000000000000000000000000000000000009F
:10214000000000000000000000000000000000008F
:10215000000000000000000000000000000000007F
:10216000000000000000000000000000000000006F
:10217000000000000000000000000000000000005F
:10218000000000000000000000000000000000004F
:10219000000000000000000000000000000000003F
:1021A0000000000000000000000000000102030425
:0C21B000010203040607080902040608E7
:04000005080000ED02
:00000001FF
