:020000040800F2
:10000000D808002089010008910100089301000828
:100010009501000897010008990100080000000000
:100020000000000000000000000000009B0100082C
:100030009D010008000000009F010008A1010008C8
:10004000A3010008A3010008A3010008A301000800
:10005000A3010008A3010008A3010008A3010008F0
:10006000A3010008A3010008A3010008E507000898
:10007000A3010008A3010008A3010008A3010008D0
:10008000A3010008A3010008A3010008A3010008C0
:10009000A3010008A3010008A30100082B09000820
:1000A000A3010008A3010008A3010008A3010008A0
:1000B00049140008A3010008A3010008A3010008D7
:1000C000A3010008A3010008A3010008A301000880
:1000D000A3010008A3010008A3010008A301000870
:1000E000A3010008A3010008A301000800F002F822
:1000F00000F03AF80AA090E8000C82448344AAF188
:100100000107DA4501D100F02FF8AFF2090EBAE885
:100110000F0013F0010F18BFFB1A43F0010318473B
:10012000A4350000C4350000103A24BF78C878C157
:10013000FAD8520724BF30C830C144BF04680C60ED
:10014000704700000023002400250026103A28BF35
:1001500078C1FBD8520728BF30C148BF0B60704739
:100160001FB51FBD10B510BD00F076F81146FFF7A2
:10017000F7FF01F0BFFF00F094F803B4FFF7F2FFC0
:1001800003BC00F097F80000094880470948004781
:10019000FEE7FEE7FEE7FEE7FEE7FEE7FEE7FEE737
:1001A000FEE7FEE704480549054A064B7047000094
:1001B000D1120008ED000008D8020020D808002065
:1001C000D8040020D804002010B5203AC0F00B80DD
:1001D000B1E81850203AA0E81850B1E81850A0E84B
:1001E0001850BFF4F5AF5FEA027C24BFB1E81850A5
:1001F000A0E8185044BF18C918C0BDE810405FEA15
:10020000827C24BF51F8043B40F8043B08BF704790
:10021000D20728BF31F8023B48BF11F8012B28BF95
:1002200020F8023B48BF00F8012B70477047704729
:10023000704710B500F008F8006810BD10B504460E
:1002400000F002F8046010BD0048704774020020FE
:1002500000487047740200207546FFF7F9FFAE466C
:1002600005006946534620F00700854618B020B5C2
:10027000FFF798FFBDE820404FF000064FF0000761
:100280004FF000084FF0000B21F00701AC46ACE83E
:10029000C009ACE8C009ACE8C009ACE8C0098D46AB
:1002A000704710B50446AFF300802046BDE810400B
:1002B000FFF763BF01491820ABBEFEE7260002002E
:1002C000704721B1826842F00102826003E08268D7
:1002D00022F001028260704721B1826842F480728C
:1002E000826003E0826822F48072826070470000BE
:1002F00000B593B0002000F0CFFD012140F20920AD
:1003000000F0F6FD0121084600F0D2FD0120059025
:10031000002004900C903D4803904FF480600990B9
:100320008020079020200A9039480290801508907C
:10033000002006904FF400500B900B208DF8040025
:1003400002208DF8050000208DF8060001208DF8B0
:10035000070001A800F000FD012202212D4800F055
:10036000BDFA02A92B4800F0C2FA0220ADF84800FD
:1003700000208DF84B0012A9274800F055FC012001
:100380008DF83900002010904FF460200F9000206D
:100390000D9001208DF844008DF838000DA91C48FF
:1003A0004C3800F04FF807230122092118484C3837
:1003B00000F070F8012116484C38FFF782FF012148
:1003C00013484C38FFF788FF11484C3800F0BEF84E
:1003D00000BF0F484C3800F02BF80028F9D10C482A
:1003E0004C3800F0C3F800BF09484C3800F016F84C
:1003F0000028F9D1012106484C3800F0ACF8012161
:10040000044800F05FFA13B000BD000008000020AF
:100410004C24014008000240000C0140014600202D
:100420008A6802F004020AB1012000E0002070474F
:10043000014600208A6802F008020AB1012000E0AB
:100440000020704730B502460020002350680F4C52
:1004500020400D790C6844EA0524204350609068E0
:100460000B4C2040D1E902542C434D7944EA450419
:1004700020439060D06A20F470000C7C641EE4B2CB
:10048000234340EA0350D06230BD0000FFFEF0FF7E
:10049000FDF7F1FFF0B504460D4600200021092DBF
:1004A00011DDE068A5F10A0606EB4607072606FA05
:1004B00007F18843A5F10A0606EB460603FA06F1A2
:1004C0000843E0600CE0206905EB4507072606FAC3
:1004D00007F1884305EB450603FA06F1084320615E
:1004E000072A0FDA606B561E06EB86071F2606FAF0
:1004F00007F18843561E06EB860605FA06F1084307
:10050000606322E00D2A0FDA206BD61F06EB860708
:100510001F2606FA07F18843D61F06EB860605FA62
:1005200006F10843206310E0E06AA2F10D0606EB35
:1005300086071F2606FA07F18843A2F10D0606EB8F
:10054000860605FA06F10843E062F0BD816841F0D5
:1005500008018160704721B1826842F4A002826084
:1005600003E0826822F4A00282607047816841F053
:10057000040181607047000010B5034800F0DFFB04
:10058000C0F3C21010BD0000000C014010B50446BD
:100590004D48007801280AD104EB44004B4901EB97
:1005A00040004B4902680A608088888009E004EBBB
:1005B0004400484901EB4000454902680A608088D0
:1005C00088804348007878B160220021424801F0D9
:1005D00074F901220021404800F0D2FF04220021DA
:1005E0003D4800F0DCFF17E0002211463A4800F0D9
:1005F000C7FF3748407850B150220021364801F0FB
:100600005CF904220021344800F0C9FF04E0002214
:100610001146314800F0C3FF2D48807878B1602240
:1006200004212D4801F049F9012204212A4800F053
:10063000A7FF04221146284800F0B1FF17E000226E
:100640000421254800F09CFF2148C07850B1502279
:100650000421214801F031F9042211461E4800F01E
:100660009EFF04E0002204211B4800F098FF184878
:10067000007978B160220821174801F01EF90122A3
:100680000821154800F07CFF04220821124800F0E0
:1006900086FF17E0002208210F4800F071FF0C4888
:1006A000407950B1502208210B4801F006F904228C
:1006B0000821094800F073FF04E0002208210648E1
:1006C00000F06DFF10BD000000000020CA330008DC
:1006D00001000020FA330008002C014000B58DB065
:1006E00001210C2000F004FC4FF46040ADF8300014
:1006F00003208DF8320018208DF833000CA93648FD
:1007000000F092FA4FF4E060ADF8300003208DF86D
:10071000320018208DF833000CA9304800F084FA1C
:100720000121C80200F0E4FB0020ADF82400ADF880
:10073000260041F29410ADF828000020ADF82A0000
:100740008DF82C0009A9264801F000F90020ADF829
:1007500014000120ADF816000420ADF818000020A8
:10076000ADF81A00ADF81C00ADF81E00ADF8200081
:10077000ADF8220005A91A4800F06AFF05A918483B
:1007800000F0B2FF05A9164801F000F84FF4006030
:10079000ADF804004010ADF806000020ADF80800E8
:1007A0004820ADF80A004FF48040ADF810008010EA
:1007B000ADF80C000020ADF80E0001A9084800F0CB
:1007C000CFFE0121064800F0FFFE0121044800F0A1
:1007D00007FF0DB000BD0000000C01400008014003
:1007E000002C014010B5022000F05EF8002202212A
:1007F000224800F073F82248007870BB214908882D
:1008000002F0B0FB2049214A128841F82200084634
:100810001E4A128850F822101D48006802F03AFA69
:100820001B49086019480088632805DA17480088C2
:10083000401C164908801AE016491548006802F065
:1008400097FA044602F056FB1349088001200C4930
:10085000087000201149088009E0FFE7094908886D
:1008600002F080FB0E49086001200E490870012249
:100870000221024800F032F810BD000008000240DA
:100880000A00002008000020E40000200C000020E6
:10089000180000200000C84226000020240000208C
:1008A000200000202800002000F0805111B10349F1
:1008B000086001E0024948607047000004040240FB
:1008C0000000024021B1026842F00102026004E02F
:1008D00002684FF6FE731A40026070471AB103684F
:1008E0000B43036002E003688B430360704710B55D
:1008F0000022026847F6F0739A430C6A8B68234320
:100900000C6923434C6923438C692343CC692343FB
:100910004C6A23438C6A23431A430260CB684360CA
:100920000B6883604B68C36010BD10B5802000F079
:1009300023F804464FF4807000F01EF804434FF48F
:10094000007000F019F804437CB1802000F00EF82C
:100950004FF4807000F00AF84FF4007000F006F8D1
:10096000FFF70AFE0446FFF711FE10BD01490860BB
:100970007047000014040140014600200022074B8C
:100980001B6803EA0102054B14331B680B4013B1CB
:100990000AB1012000E0002070470000000401407F
:1009A0002DE9FC5F81460C4692469B467B480168D8
:1009B000484602F01DFC0646794902F01BFB05463D
:1009C000784902F067F9784908600846006802F043
:1009D00035F90746754A764B01F03CFF054601F0B4
:1009E000A5FC7449086000207349086073492046DB
:1009F00002F0CCFB06D22146714802F0F9FB044616
:100A000084F000446F49204602F0C0FA04D2214627
:100A10006B4802F03FF904466B4804606B4920467E
:100A200002F0B4FB04D36A49204602F0AFFA04D2C4
:100A3000684804606848C0F800902146504602F0BB
:100A4000D9FA6649086066496448006802F09EFA6F
:100A500002D263486149086051496048006802F069
:100A600095FB02D24E485D4908605248006802F08A
:100A7000E5F8074601F0F0FA054601F057FC594940
:100A800008604C48006802F0D9F8574A574BCDE946
:100A9000000101F0E9FF074601F0DEFA054601F02A
:100AA00045FC534908604348006802F0C7F8054612
:100AB0004D4A4E4B01F06CFC074601F0CDFACDE9F2
:100AC000000101F033FC4B49086044480168454887
:100AD000006802F08FFA48490860404801684448BD
:100AE000006802F087FA454908603C4801684148BF
:100AF000006802F07FFA4249086029493E480068D0
:100B000002F0C8F83F49086025493C48006802F0F7
:100B1000C1F83D49086022493948006802F0BAF836
:100B20003A4908603A493748006802F063FA0646D5
:100B3000384902F01DF9054602F0DCF93649088013
:100B400033493148006802F055FA0646314902F04F
:100B50000FF9054602F0CEF92F49091D08802C49EE
:100B60002A48006802F046FA06462A4902F000F9CF
:100B7000054602F0BFF92849083108802648008858
:100B8000264908602448001D00882549086022483D
:100B90000830008823490860BDE8FC9F4C00002015
:100BA000000070410000B442A4000020399D52A210
:100BB00046DF913FA0000020840000200000344365
:100BC0000000B443000034C3B80000200000C84255
:100BD0000000C8C2BC000020C0000020800000202F
:100BE000000070C19400002066732D3852C100408F
:100BF000980000209C000020880000208C0000202D
:100C000090000020A8000020AC000020B0000020D0
:100C100000A08C450000F041342C0140C4000020AD
:100C2000C8000020CC0000202DE9F041024600253C
:100C30000026002000230024002791F803C00CF0B8
:100C40000F0591F803C00CF0100CBCF1000F03D09D
:100C500091F802C04CEA050591F800C0BCF1000F04
:100C600031D0146800202BE04FF0010C0CFA00F397
:100C7000B1F800C00CEA03069E4220D183004FF079
:100C80000F0C0CFA03F7BC4305FA03FC4CEA04040E
:100C900091F803C0BCF1280F06D14FF0010C0CFAFB
:100CA00000FCC2F814C00AE091F803C0BCF1480F80
:100CB00005D14FF0010C0CFA00FCC2F810C0401C2A
:100CC0000828D1D31460B1F800C0BCF1FF0F34DDA7
:100CD000546800202EE000F1080C4FF0010808FADB
:100CE0000CF3B1F800C00CEA03069E4221D1830048
:100CF0004FF00F0C0CFA03F7BC4305FA03FC4CEA67
:100D0000040491F803C0BCF1280F05D100F1080CD0
:100D100008FA0CF8C2F8148091F803C0BCF1480F2F
:100D200007D100F1080C4FF0010808FA0CF8C2F8DE
:100D30001080401C0828CED35460BDE8F0810146E5
:100D4000886880B270474FF6FF7101800221817080
:100D50000421C1707047000070B5002100230F22EC
:100D6000C47804B3154C246804F4E064C4F5E0646A
:100D7000210AC1F10403CA40447804FA03F18478DB
:100D80001440214309010E4C0678A155047804F063
:100D90001F050124AC4005786D11AD0005F1E0257B
:100DA000C5F8004109E0047804F01F050124AC40B7
:100DB000044D0678761145F8264070BD0CED00E034
:100DC00000E400E080E100E000B587B001210420EC
:100DD00000F08EF806A8FFF7B6FF0120ADF8180066
:100DE00004208DF81B0002208DF81A0006A929485E
:100DF000FFF71AFF0121084600F06AF84FF6FF706E
:100E0000ADF810000220ADF80C000020ADF8120083
:100E1000ADF80E008DF8140003A94FF0804000F0EB
:100E200095FD0020ADF800000F20ADF8080000206F
:100E3000ADF80200ADF806000120ADF804006946E7
:100E4000800700F0F3FC5021880600F02DFD0421FE
:100E5000080700F05BFD01220221480700F0EFFBCC
:100E600001220421080700F0EAFB0121880700F0B5
:100E7000ABFB1C20002809DB00F01F020121914080
:100E80004209920002F1E022C2F8001100BF07B04F
:100E900000BD00000008014001460020034A5068E0
:100EA00020F44040084350607047000000100240AA
:100EB00029B1064A52690243044B5A6104E0034ACD
:100EC00052698243014B5A61704700000010024092
:100ED00029B1064AD2690243044BDA6104E0034AAD
:100EE000D2698243014BDA61704700000010024072
:100EF00029B1064A92690243044B9A6104E0034A0D
:100F000092698243014B9A617047000000100240D1
:100F10000F48006840F001000D490860084640682D
:100F20000C4908400A494860084600680A490840D8
:100F3000074908600846006820F4802008600846D9
:100F4000406820F4FE0048604FF41F00886070473E
:100F5000001002400000FFF8FFFFF6FE30B5002150
:100F60000022002400232D4D6D6805F00C0121B1F5
:100F7000042905D0082923D105E0294D056022E088
:100F8000274D05601FE0254D6D6805F47012234D57
:100F90006D6805F48034022505EB92421CB9214DA1
:100FA000554305600BE01D4D6D6805F400351DB11E
:100FB0001C4D5543056002E0194D5543056002E0A4
:100FC000174D056000BF00BF144D6D6805F0F001BE
:100FD0000909154D6B5C0568DD4045600F4D6D6876
:100FE00005F4E061090A104D6B5C4568DD408560E1
:100FF0000A4D6D6805F46051C90A0B4D6B5C45687C
:10100000DD40C560054D6D6805F44041890B074D15
:101010006B5CC568B5FBF3F5056130BD001002409F
:1010200000127A0000093D00D0000020E0000020FE
:1010300010B501460022002300204A11012A02D1E6
:10104000094C236806E0022A02D1074C236A01E01A
:10105000054C636A01F01F02012494401C400CB14E
:10106000012000E0002010BD00100240024840684E
:1010700000F00C0070470000001002400146002004
:10108000034A506820F0F0000843506070470000A9
:10109000001002401149096821F480310F4A1160A3
:1010A0001146096821F480211160B0F5803F03D01A
:1010B000B0F5802F0ED106E00849096841F480316F
:1010C000064A116007E00549096841F4A021034A76
:1010D000116000E000BF00BF704700000010024038
:1010E00001460020034A506820F4E0600843506045
:1010F000704700000010024001460020034A50687B
:1011000020F4605040EAC100506070470010024077
:101110000149086670470000000042420246002074
:10112000044B586820F47C1042EA01031843014B39
:10113000586070470010024001460020034A506882
:1011400020F0030008435060704700000010024088
:1011500038B5002000900024002500BF3120FFF7A3
:1011600067FF05460098401C00900098B0F5A06FFE
:1011700001D0002DF2D03120FFF75AFF08B1012431
:1011800000E00024204638BD10B500F031F810BD55
:1011900010B5FFF7BDFE4FF48030FFF77BFFFFF780
:1011A000D7FF0446012C1FD10020FFF767FF002066
:1011B000FFF7A2FFA002FFF793FF4FF4E011200416
:1011C000FFF7ACFF0120FFF7A3FF00BF3920FFF7B7
:1011D0002FFF0028FAD00220FFF7AEFF00BFFFF775
:1011E00045FF0828FBD101E000BFFEE710BD00006D
:1011F0000CB50020019000903348006840F4803026
:101200003149086000BF3048006800F400300090A9
:101210000198401C0190009818B90198B0F5A06F92
:10122000F1D12948006800F4003010B1012000908D
:1012300001E0002000900098012843D12348006875
:1012400040F01000214908600846006820F00300C3
:1012500008600846006840F0020008601A484068CC
:10126000194948600846406848600846406840F4AC
:10127000806048600846406820F47C10486008465A
:10128000406840F4E81048600846006840F080700C
:10129000086000BF0C48006800F000700028F9D01A
:1012A0000948406820F00300074948600846406844
:1012B00040F00200486000BF0348406800F00C00A6
:1012C0000828F9D10CBD00000010024000200240A7
:1012D00010B51348006840F0010011490860084645
:1012E0004068104908400E494860084600680E49A9
:1012F00008400B4908600846006820F48020086018
:101300000846406820F4FE0048604FF41F008860E3
:10131000FFF73AFF4FF000600449086010BD00007D
:10132000001002400000FFF8FFFFF6FE08ED00E0AD
:10133000F0B50C46154600220021068C4FF6FE77CC
:101340003E400684028B018C4FF60C7632407E1CA8
:1013500006EA03162E433243104EB0420ED0104E12
:10136000B0420BD0B0F1804F08D00E4EB04205D045
:101370000D4EB04202D00D4EB04206D14FF6FD7672
:10138000314044F00106314305E04FF6F576314037
:1013900044F00106314302830184F0BD002C01407A
:1013A000003401400004004000080040000C0040F0
:1013B000F0B50C461546002200210026078C4FF69A
:1013C000EF7C07EA0C070784028B018C4FF6FF774E
:1013D00007EA041640F6FF473A404FF6FF7707EA60
:1013E00003373A434FF6FF7707EA05273A43114F91
:1013F000B8420ED0104FB8420BD0B0F1804F08D099
:101400000E4FB84205D00E4FB84202D00D4FB84231
:1014100006D14FF6DF77394046F01007394305E033
:101420004FF65F77394044F0100739430283018457
:10143000F0BD0000002C01400034014000040040D9
:1014400000080040000C004070B50221480700F081
:10145000E5F8002857D00221480700F0B2F81C2018
:10146000002817DB00F01F0201219140264A4309A2
:1014700042F8231000BF00BF00BFBFF34F8F00BF73
:1014800000BF00BF00BF00BF00BFBFF36F8F00BF32
:1014900000BF00BF00BF4FF0804000F0B0F81B4914
:1014A00008804FF0804000F0ADF8194908801748D7
:1014B000008801F057FD05461548008801F052FDEF
:1014C0000646294601F054FC0446124901F092FDFB
:1014D000114908601C20002809DB00F01F020121CF
:1014E00091404209920002F1E022C2F8001100BFCF
:1014F0004FF40071480500F088F820B14FF40071F6
:10150000480500F05BF870BD80E100E0400000207D
:10151000420000200000B443480000200EB5012125
:101520000420FFF7D5FC4FF6FF70ADF8040044F23D
:101530004F60ADF800004FF40070ADF806000020D9
:10154000ADF802008DF808006946044800F0FEF985
:101550000121024800F038F80EBD000000080040EC
:101560000A884B881A438B881A43CB881A430B8905
:101570001A434B891A438B891A43A0F844207047B9
:1015800030B5002301248C40A3B2048C9C43048416
:10159000048C02FA01F5ADB22C43048430BD30B5A1
:1015A000002304248C40A3B2048C9C430484048C48
:1015B00002FA01F5ADB22C43048430BDCA43028265
:1015C0007047CA430282704721B1028842F001028B
:1015D000028004E002884FF6FE731A4002807047D2
:1015E00031B1B0F8442042F40042A0F8442005E0B4
:1015F000B0F84420C2F30E02A0F844207047014620
:10160000888E70470146088F704702460020138A73
:101610000B400BB1012000E00020704730B50246BE
:10162000002000230024158A05EA0103958905EAB4
:10163000010413B10CB1012000E0002030BD1AB14B
:1016400083890B43838102E083898B4383817047C5
:1016500070B5002400220023058C4FF6FE7635403D
:101660000584028C8388048B4FF68F752C40B51E41
:101670002C400D882C43751E2A400D892A434D8825
:101680002A43144DA8420BD0134DA84208D0134D45
:10169000A84205D0124DA84202D0124DA84213D143
:1016A0004FF6F7752A404D892A434FF6FB752A40BD
:1016B0008D882A434FF6FF652B404FF6FF552B4090
:1016C0008D892B43CD892B4383800483CD888586E8
:1016D000028470BD002C01400034014000400140F4
:1016E000004401400048014070B50024002200235E
:1016F000058C4FF6EF7635400584028C8388048B89
:1017000048F6FF752C404FF6FF452C400D884FF6EC
:10171000FF7606EA05252C434FF6DF752A400D8932
:1017200006EA05152A434D8806EA05152A43154D94
:10173000A84202D0144DA8421DD14FF67F752A4011
:101740004D894FF6FF7606EA05152A434FF6BF7519
:101750002A408D8806EA05152A434FF6FF352B40AF
:101760004FF2FF752B408D8906EA85052B43CD8905
:1017700006EA85052B4383800483CD880587028490
:1017800070BD0000002C01400034014070B5002401
:1017900000220023058C4FF6FF6635400584028C3D
:1017A0008388848B4FF68F752C404FF6FC752C4048
:1017B0000D882C434FF6FF552A400D894FF6FF76D2
:1017C00006EA05252A434D8806EA05252A43154DD4
:1017D000A84202D0144DA8421DD14FF2FF752A40F5
:1017E0004D894FF6FF7606EA05252A434FF6FF3569
:1017F0002A408D8806EA05252A434EF6FF752B40C0
:101800004DF6FF752B408D8906EA05152B43CD89D2
:1018100006EA05152B4383808483CD88858702845F
:1018200070BD0000002C0140003401402DE9F04162
:1018300005460C4600260127608808B9022600E00C
:101840000026A088012801D1022700E00127208876
:10185000A0B92389A28861882846FFF769FDE1883D
:10186000284600F05CF823893A4631462846FFF7BF
:101870009FFDE188284600F05BF813E02389A288E9
:1018800061882846FFF794FDE188284600F050F86B
:1018900023893A4631462846FFF74AFDE188284623
:1018A00000F03DF8BDE8F0810A46002101894FF6BD
:1018B0008F73194011430181704770B503460020B2
:1018C00000241846183001258D40ACB21D8CA5436C
:1018D0001D8409B1082909D100EB6100056825F0D4
:1018E000700505600568154305600EE00D1FC5F322
:1018F0004E052844056825F4E045056005684FF667
:10190000FF7606EA02263543056070BD02894FF670
:10191000F8731A40028102890A4302817047028BE0
:101920004FF6F3731A400283028B0A430283704717
:10193000028B4FF2FF331A400283028B4FF6FF7384
:1019400003EA01231A430283704700000022028841
:101950001D4B98420ED01D4B98420BD0B0F1804FDA
:1019600008D01B4B984205D01A4B984202D01A4B14
:10197000984204D14FF68F731A404B881A43174B85
:10198000984207D0164B984204D04FF6FF431A40B6
:10199000CB881A4302808B8883850B8803850A4B8A
:1019A00098420BD0094B984208D00E4B984205D074
:1019B0000D4B984202D00D4B984201D10B7A038611
:1019C0000123838270470000002C01400034014055
:1019D0000004004000080040000C004000100040DF
:1019E0000014004000400140004401400048014014
:1019F000490050EAC12018BF04204A0D18BF40F02A
:101A0000010040F2FF72B2EB515F08BF40F00200EC
:101A1000012808BF052070472DE9F74F144694B000
:101A20000021C4E902111599079121F00045C94927
:101A30008D4206DC1599C4E9000117B00020BDE80D
:101A4000F08FC549DFF814A3A9423CDD0799C44EC5
:101A50000029C44FC44A1599534619DD01F004F812
:101A6000554506D0C14AC24B00F0FEFFC4E9000153
:101A70000AE04FF0D352BE4B00F0F6FF32463B4631
:101A800000F0F2FFC4E9000117B00120BDE8F08FBB
:101A900000F07EFC554506D0B44AB54B00F078FC0A
:101AA000C4E900010AE04FF0D352B14B00F070FCE2
:101AB00032463B4600F06CFCC4E9000117B04FF021
:101AC000FF30BDE8F08FAB49A942159978DB21F0D2
:101AD000004183468846A84AA84B00F0BBFE00227E
:101AE000A74B00F055FC00F05BFE099000F087FE6C
:101AF00006460F469C4A534600F0ACFE43465A4603
:101B000000F0A6FF80468A46984A994B30463946EF
:101B100000F0A0FE2A0D01250B924246534600F02C
:101B200097FF032DC4E9000139D00B98C1F30A5186
:101B3000401A05EB45111139814230DA9148C3460C
:101B4000784400EB0510CDF80CA00C90D0E90023F0
:101B50003046394600F07EFE02460B460491069060
:101B60005846039900F080FF80468A4602460B469D
:101B70005846039900F078FF049B069A00F074FF22
:101B800083460C9803913946D0E90223304600F091
:101B900061FE5A46039B00F067FF6D1CBDE7079886
:101BA0000028A2BF099817B0BDE8F08F616881F0E6
:101BB00000416160099817B04042BDE8F08FFFE72F
:101BC00084461598C1F31301C0F30A50A0F2F53012
:101BD0004FEA601800F01F06C6F1200013900020A5
:101BE0000690079041F4801E05206D4676B1664A46
:101BF00008EB00017A4452F8213002EB8101B34036
:101C00004A68139922FA01F1194305E05F4908EB8C
:101C10000002794451F82210A1FB0E27A1FB0C13FE
:101C20001A449A4234BF0123002303EB070A05EB51
:101C30008003D3E901B70F448F4234BF0121002153
:101C400093448B4411B1934502D903E0934501D2EB
:101C5000012100E00021C3E901B7514445F82010FB
:101C6000011EA0F10100C1DC0298059F00F10050A7
:101C7000800F12900298DDE90356800000F0BFFD4E
:101C8000834628460D9100F0D1FD6FF01D0201F052
:101C900056FBCDE90E01304600F0C8FD6FF03D0265
:101CA00001F04DFB80468A46384600F0BFFD6FF0DC
:101CB0005D0201F044FB074642465346119100F095
:101CC00067FBDDE90E2300F063FB5A460D9B00F035
:101CD0005FFB00250E465A4628460D9B00F0C4FEC9
:101CE000DDE90E2300F0C0FE4246534600F0BCFE84
:101CF0003A46119B00F0ACFEDFF898A0244A534608
:101D000000F0A8FD07468846234A244B3146284662
:101D100000F0A0FD3A46434600F03AFB07468846ED
:101D20004FF0A84253463146284600F093FD3A460C
:101D3000434600F02DFB159A12F0004F04D0129A82
:101D400081F0004152421292C4E90001129817B08A
:101D5000BDE8F08FFB21E93F7CD90240FB21F93F30
:101D60007370032E8A19A33B000040543163621A3A
:101D700061B4D03DFB21394183C8C96D305FE43F78
:101D80000000E03F1C190000981800007A180000BD
:101D9000182D4454FB21F93D3326A611460B113C66
:101DA0002DE9FF4D21F0004807460C46B8F1795F58
:101DB00008DA00F0F5FC002801BF0020324904B029
:101DC000BDE8F08D3A4623461046194600F042FD24
:101DD000054602462D480E460B460621784400F083
:101DE0005DF82A46334600F035FDDDE902238246E0
:101DF0008B463846214600F02DFD04460F465246DC
:101E00005B462846314600F025FD22463B4600F061
:101E10002BFE07468A464FF0FF322846314601F036
:101E20008EFA1B4A90450ADA3A46534600F01CFEE9
:101E300004B00022BDE8F04D134B00F009BE154A76
:101E40004245A8BFA8F500154FF00004B8BF124DD9
:101E500022462B4600F008FE0646884622462B46C0
:101E60000020094900F000FE04460D463A4653465C
:101E70003046414600F0F8FD04B022462B46BDE84E
:101E8000F04D00F0E5BD00000000F03F50160000EE
:101E90003333D33F0000E93F0000D23F2DE9F0414A
:101EA0004F1E00EBC7010446D1E9000115461E464E
:101EB00037F006020DD02A46334600F0CBFC7F1ED9
:101EC00004EBC703D3E9002300F062FA37F00602FF
:101ED000F1D1022F25D0042F13D0062F18BFBDE853
:101EE000F0812A46334600F0B5FCD4E90A2300F01D
:101EF0004FFA2A46334600F0ADFCD4E9082300F03F
:101F000047FA2A46334600F0A5FCD4E9062300F040
:101F10003FFA2A46334600F09DFCD4E9042300F042
:101F200037FA2A46334600F095FCD4E9022300F044
:101F30002FFA2A46334600F08DFCD4E90023BDE891
:101F4000F04100F025BA00002DE9FF4D054621F0D3
:101F5000004084B00C46B0F1795F0BDA2846FFF7F9
:101F600047FD042808BF00F06FF8284608B0214656
:101F7000BDE8F08D2A460B46104600F06BFC064685
:101F80000F462A46234600F065FC804626488A46CE
:101F900032463B4605217844FFF780FF8346109880
:101FA000029160B3214A224B4046514600F052FC58
:101FB000CDE900015A4640465146029B00F04AFCDA
:101FC00082468846DDE906014FF0FF3201F0B7F99D
:101FD0005246434600F048FD32463B4600F03AFC8C
:101FE000DDE9062300F040FDDDE9002300F03CFDC3
:101FF00008B02A462346BDE8F04D00F029BD0B4647
:102000005A463046394600F025FC084A084B00F095
:10201000BFF94246534600F01DFC08B02A4623464D
:10202000BDE8F04D00F0B4B98E1500004955555586
:102030005555C5BF012201F082B900221346104652
:10204000114600F055BA0000024A0020110701F0C5
:1020500076B9000001FDFFFF00B5244B21F00042DE
:1020600087B09A42DCBF0022134629DD204B9A42FA
:1020700008D140B94FF00100FEF7E0F8FFF7DDFFAF
:1020800007B000BD03DBFFF7D5FF07B000BD02AA14
:10209000FFF7C2FC10F0030104BF0DF1080C9CE82F
:1020A0000F000DD0012001290ED0022914D00DF10E
:1020B000080C00909CE80F00FFF746FF07B000BD3A
:1020C000FFF76EFE07B000BD0DF1080C00909CE814
:1020D0000F00FFF739FF05E00DF1080C9CE80F0039
:1020E000FFF75EFE07B081F0004100BDFB21E93F34
:1020F0000000F07FE0B0FFF74BF8FEF765FEFEF75B
:10210000F7F8FFF70BFAFEF7E9FA602200216448BE
:10211000FFF7D3FB602204216148FFF7CEFB60226A
:1021200008215F48FFF7C9FB012200215C48FFF747
:1021300027FA042200215A48FFF731FA012204212C
:102140005748FFF71DFA042211465548FFF727FAB2
:10215000012208215248FFF713FA042208215048AF
:10216000FFF71DFA5BA8FEF7F9FE4E495F9808607D
:102170004D495C9808604D495D9808604C495E98EF
:1021800008604C495B9808604B484C49086000BFA8
:102190004FF4B4724A4901A8FEF716F800BF4FF495
:1021A000B4704849088008460088032190FBF1F08C
:1021B000C4B20020444908800846008820444349AE
:1021C0000880084600882044414908803D4800882E
:1021D000401E3C4908803F483F4908604FF47A70F0
:1021E00000F092F85BE03D480068401C3B49086005
:1021F0003B48007801282FD13A483B4A128850F8D2
:1022000022103A48006800F0F3FF0546384801689C
:10221000284600F03FFD35490860364933480068DC
:1022200000F0A6FD054600F065FE33490880304801
:1022300001682C482C4A128840F822102A4800884D
:10224000401C2949088008460088642801DB0020DA
:102250000880002022490870284800682849086042
:10226000254800884FF4B471484340F6FF7190FB55
:10227000F1F5284600F05EFE174908602048016825
:102280001548006800F0B4FF1E4908604FF07C5309
:102290001A46084601681A480068FEF781FBA2E763
:1022A000002C014060000020640000206800002035
:1022B0006C000020700000209A99B9424C00002068
:1022C00050350008300000202A0000202C0000209B
:1022D0002E0000200000F041340000203C000020CF
:1022E00028000020E4000020240000201800002026
:1022F000200000200000C8422600002048000020E6
:10230000500000203800002006490988064A116064
:1023100000BF04490988044A1268891AB1EB800F8A
:10232000F7D37047240800407C00002021F00042D1
:10233000A2F16052B2F5801F01F0004328BFD2F134
:102340007F6C0BD95FEA001C43EAC20242EB50707B
:1023500018BF704728BF20F001007047B2F5801FFA
:10236000BCBF184670474FEA410C1CF5001F02D253
:10237000084600F006BF70B500F016FB00000089AB
:10238000FFF7F6BF4FF00040A0F580007047000057
:1023900010B591EA030F48BF83F0004300F16C834E
:1023A000841A71EB030C05D2121943EB0C03001BCA
:1023B00061EB0C01DFF824E14FEA1154A4EB135C4C
:1023C0001EEA430F18BF9EEA445F73D023EA0E0350
:1023D000DCF1200E21EA045143F4801332D322FAB7
:1023E0000CFE10EB0E0023FA0CFE41EB0E01CCF1BB
:1023F000200E03FA0EFE10EB0E0051F10001B1F5B4
:10240000801FCCF1200E32D201EB045112FA0EF2F1
:10241000BDE8104058BF7047401C38BF5FEA420219
:1024200018BF7047002814BF20F0010041F10001DF
:102430004FEA410313F5001F38BF7047A1F1C041B7
:1024400000F000BB012A43EB0302ACF1200CDCF1ED
:102450001F0E32BF4FF0000E23FA0CF310EB0300F7
:1024600041EB0451B4EB115FD0D0A1EB045101F565
:10247000801149085FEA300001EB04510ED350F19E
:10248000000038BF12FA0EFE08D1BDE81040C9E7BF
:10249000401C38BF5FEA4202CAD1C3E7BDE8104022
:1024A0004FEA410313F5001F38BF7047A1F1C04147
:1024B00000F0C8BA9EEA445F08D011EA5E0FBDE89A
:1024C000104004BF01F0004100207047BDE81040FB
:1024D00070B500F069FA00BF64FBBE3E0000E0FF8B
:1024E00002494FF0000000F0F8BE00BF0000F87F86
:1024F0002DE9C04130B4DFF8A0C23CEA111418BF86
:102500003CEA131400F0EC8081EA03051CEA111484
:1025100044EAD57418BF1CEA131500F0C780A4EB79
:1025200005044FF0004545EAC12145EAC32341EACD
:10253000505143EA525304F17F74994204F5003438
:102540004FEAC0204FEAC22208BF904200F09C80B0
:102550004FEA13650FF24016765D4FEA134506FB0E
:1025600005F7C7F1807706FB07F74FEAD737A7FBD8
:1025700003687642C8F58038A7FB06CE38BFA8F1BD
:10258000010807FB08E64FF0000EA6FB028CE6FBF5
:1025900003CEDCF1000CCEF1004E38BFAEF1010EDF
:1025A000A6FB0C584FF000074FF00005E6FB0E8726
:1025B000A1FB08C6A0FB07CE16EB0E0645F10005F1
:1025C000E1FB076515F1E04E7EBFA4F580345FEABC
:1025D00046066D4116F1800745F100054FEA1727C1
:1025E0004FEA066647EA0567A6F1DE46B6F1805F68
:1025F0004FEA15251FD9384624F0010C05EBC471AC
:10260000BCF1FE6F01EB0C1102D8F0BCBDE80081FB
:1026100024425CBF01F5801E9EEAC47F02D4F0BC58
:10262000BDE80081244238D4F0BCA1F1C041BDE82E
:10263000004100F007BA4FEAD22242EA43524FEA81
:10264000D323A7FB02864FEAD02040EA415007FB84
:1026500003661EEA0E0F4FEAD12105FB026658BF42
:10266000A6EB0056B6EB00564FEA520E4EEAC37E7A
:1026700018EB0E0E56EB530EBDD518EB02085E415B
:102680007F1C55F10005B6E74FF480154FF00007A9
:102690004FF000064FF00008ADE7F0BC4FF000002F
:1026A00001F1C04101F00041BDE8008111EA0C1FB9
:1026B0000CEA131500D00CE013EA0C1F00F0258083
:1026C0004FF00000F0BC81EA030101F00041BDE8D9
:1026D0000081F0BCBDE8004181EA030100F0B2B91D
:1026E000F0BCBDE8004170B500F05EF9097EFC3E2B
:1026F00000F007B881EA03014FF0000001F000414B
:10270000704781EA030100F09DB9F0BCBDE80041CB
:102710004FF0000021497047FFFDFBF9F7F5F4F297
:10272000F0EEEDEBE9E8E6E4E3E1E0DEDDDBDAD86C
:10273000D7D5D4D3D1D0CFCDCCCBCAC8C7C6C5C4CA
:10274000C2C1C0BFBEBDBCBBBAB9B8B7B6B5B4B3E1
:10275000B2B1B0AFAEADACABAAA9A8A8A7A6A5A4CC
:10276000A3A3A2A1A09F9F9E9D9C9C9B9A99999890
:102770009797969595949393929191908F8F8E8E33
:102780008D8C8C8B8B8A89898888878786858584C0
:1027900084838382828181800000FF070000F87FAC
:1027A0004FEA41034FEA5353A3F58063D3F11E036D
:1027B000C8BFD3F1210C0CDD4FF0004242EAC12228
:1027C00042EA505232FA03FC8CEAE17CACEBE17055
:1027D0007047102BC4BF0020704703F5787CBCF114
:1027E000FF3F04D06FF0004282EA2100704770B5CD
:1027F00000F0DAF84992248000207047F2E710F0E8
:10280000004248BF4042B0FA80F310FA03F10AD008
:10281000C3F11D0303F580634FEA415002EB0352FD
:1028200002EBD12170474FF000007047B0FA80F3FF
:1028300010FA03F10AD0C3F11D0303F580634FEAD8
:1028400041504FEA035202EBD12170474FF0000094
:1028500070470000DFF848C170B51CEA111E1EBFAA
:102860001CEA13159EEA0C0F95EA0C0F00F06F801E
:1028700081EA030423EA4C134EEAD47E21EA4C1188
:1028800041F4801143F48013AE44A1FB024CA0FB41
:102890000365AEF17F7E361955EB0C05A1FB034CA9
:1028A0004CF10003A0FB021C16EB0C06654153F132
:1028B0000003094218BF46F0010613F4007F0BD154
:1028C0004FEA03314FEA0530340341EA155140EA3B
:1028D00016506FF003020AE04FEAC3214FEAC52009
:1028E000F40241EA555140EA56506FF0020202EB01
:1028F0002E4201EB025585EACE710AD05FEA440C04
:1029000018BF24F0004450F1000041F1000120EA1A
:10291000D47040F2FE7C624500D270BDA84214BF64
:102920004FF080444FF04044002E08BF0024BEF119
:10293000806FA8BFA1F1C041BDE8704080F28280E5
:102940004FF0000001F1C04101F0004170479EEAE4
:102950000C0F0CEA131518BF95EA0C0F06D04FF0B8
:10296000000081EA030E0EF0004170BD00F01CF87B
:102970008900013E00F007B800F009B84FEA430CA7
:102980005FEA5C5C08D081EA030100F05BB84FEAC3
:10299000410C5FEA5C5CF6D14FF0000001497047E2
:1029A0000000FF070000F87F0EF1020E2EF0030E6C
:1029B0005EF8046B364205D4012A43EB030515F596
:1029C000001F12D8012841EB010C1CF5001F0CD888
:1029D0000ED14FEAD17C15F5001F0CEB4C0C0CF11D
:1029E000020C08BF4CEBD37C04E04FF0080C01E074
:1029F0004FEAD37C0CEB4C0526FA05F606F00706E9
:102A0000B6F1040C06D20EEB860CBDE870404CF01B
:102A1000010C6047DFE80CF0090B02024FF00041A7
:102A20004FF00000A1F5002170BD194610460128A5
:102A300051EB010418BFD4F5001484BF002001F04D
:102A4000004170BD0808A0F500114FEA3101704740
:102A500091EA030F10B581F000413FF5A1AC83F07E
:102A6000004300F009B8000010B591EA030F48BF19
:102A700083F000433FF594AC841A71EB030C07D24A
:102A800012198CF0004C43EB0C03001B61EB0C01A2
:102A9000DFF8A4E14FEA1154A4EB135C1EEA430FE4
:102AA00018BF9EEA445F00F0B08023EA6E035242F2
:102AB00021EA0451C3EB6E0338BF5B1EDCF1200E2C
:102AC00025D322FA0CFE10EB0E0043FA0CFE41EB6C
:102AD0000E01CCF1200E03FA0EFE10EB0E0051F1A8
:102AE0000001CCF1200E29D412FA0EF201EB0451B0
:102AF000BDE8104058BF7047401C1CBFB2F1004FEA
:102B0000704700280CBF491C20F00100704712EBF1
:102B1000020E43EB030218BF4FF0010E4EEA4202D1
:102B2000ACF1200CDCF11E0E54D943FA0CFE10EB74
:102B30000E0051F1FF31CCF11E0ED5D50EF1010E74
:102B400012FA0EFE404141EB010101EB445C5FEAE9
:102B50005C5C10D910EBDE7001EB045138BFBEF1A4
:102B6000004FBDE8104018BF704700280CBF491C3B
:102B700020F00100704730D24FEAD42C11F500113B
:102B800024F400641BD0B1FA81F20B3AA41AA41EFB
:102B9000D2F12003914030FA03F31943904001EB46
:102BA000CC71002C01EB0451BDE81040A8BF704768
:102BB00001F1C0414FF0000001F000417047B0FA50
:102BC00080F310FA03F100D110BDE41A173C480558
:102BD000C90AE4E701EB045110BD491001EB0451AF
:102BE000BDE810404FEA300002E04FF000017047AE
:102BF0004A0008BF0042F8D0B2F5001F28BF704756
:102C000001F000414FF0000070479EEA445F07D09A
:102C100011EA5E0FBDE8104004BF0021002070479C
:102C2000BDE8104070B5FFF7BFFE00BF40DFF63EC5
:102C300083F00041104670470000E0FF43004FEA78
:102C4000D30C4FEA3C0C43401FBF40070CF16051CE
:102C500013F0FE4F70471CF0006F03D100200CF002
:102C6000004170470CF0004343EA507010B540EA51
:102C7000CC0000F040FA00BF000000924FEA0001D3
:102C8000FFF7E0BE4FF000414FF00000A1F500213A
:102C90007047000090EA010F48BF81F0004100F149
:102CA000AE82421A3CBF801A89184FEAD0524FF0C8
:102CB0007F4C1CEA410FA2EBD15318BF9CEA026F74
:102CC00000F03B804FF0004C4CEA00204CEA012120
:102CD00021FA03FC10EB0C0C1ED202F1FF325FEA6A
:102CE0001C2040EBC25038BF70471CF07F0F4FEAEA
:102CF000400C18BFBCF17F4F38BF7047C3F12003B1
:102D0000994008BF20F00100BCF17F4F38BF7047E9
:102D1000A0F1C04000F035BA4FEA3C00000A40EB99
:102D2000C25028BF1CF0FF0F4FEA400CE6D018BF7E
:102D3000BCF17F4F38BF7047EAE79CEA026F05D0CD
:102D400010EA5C0F08BF00F00040704710B500F0BB
:102D5000D2F900BF64FBBE3E401058BFC0F14040F6
:102D6000491058BFC1F140418142EFF300807047E4
:102D70004FF47F0C1CEAD0121EBF1CEAD11392EA5A
:102D80000C0F93EA0C0F00F0858090EA010F48BF0A
:102D900042F4807240F4000C41F400002CF07F41BA
:102DA00020F07F4000B58142A2EB03020FF2081C25
:102DB000ACEB504EC0F100009EF800E04FEA4E0E22
:102DC00000FB0EFC38BF49004FEA2C1C02F5FA024A
:102DD0000CFB0EF34FEACE1E4FEA112C4FEAC12135
:102DE0000EEB635E42EB22420EFB0CFC4FEA1C53DF
:102DF00000FB03114FEA112C4FEA01310EFB0CFCD2
:102E00004FEADC4C00FB0C11C14228BF09184CEB07
:102E100003335DF804EB10EB410143EBC250B2F514
:102E20007C0F38BF704729D512F0F00F1CBF00F19E
:102E3000C04000F00040704700818283848586870F
:102E400088898B8C8D8E8F919293959697999A9C69
:102E50009D9FA0A2A3A5A7A8AAACAEB0B2B3B5B7D8
:102E6000B9BCBEC0C2C5C7C9CCCED1D4D7D9DCDFAE
:102E7000E2E6E9ECF0F3F7FAFE0000004FEA400C5E
:102E80000CF1807CBCF17E4F28BF7047B0F1C04090
:102E900000F077B990EA010F0CEAD11348BF42F471
:102EA0008072624538BF634507D213F47F0F16D096
:102EB00080EA010000F00040704710B500F01BF9F7
:102EC000097EFC3E00F005B880EA010000F00040F9
:102ED000704780EA010000F0004000F052B912F49F
:102EE0007F0F04BF0248704780EA010000F049B933
:102EF0000000C07FC10DD1F19E0206DB4FEA002326
:102F000043F0004323FA02F07047004207D54FEA2E
:102F10004001B1F1FE4F02D24FF00000704710B5F2
:102F200000F0E9F849922480002070476FEA200001
:102F30007047000010F0004148BF4042B0FA80F3F3
:102F400010FA03F2C3F19D030BD051EAC35101EB18
:102F50001220530638BF704700F1010008BF20F06F
:102F600001007047B0FA80F310FA03F2C3F19D0339
:102F70000AD0D90501EB1220530638BF704700F183
:102F8000010008BF20F001007047000050EA010C6A
:102F900000F113801CF5000F58BFBCF5000F01D4E1
:102FA0008842704707D710F5000F58BF11F5000F82
:102FB00015D488427047894270471CF5000F04D52C
:102FC000BCF5000FF7D5814270474FF0807C1CEBB9
:102FD000400F38BF1CEB410F01D28142704710B542
:102FE00000F089F8922449004FF000504FF08051D2
:102FF000FFF7B2BE4FF47F0C1CEAD0121EBF1CEAD2
:10300000D11392EA0C0F93EA0C0F00F0478090EA7C
:10301000010F48BF42F480724FF0004C4CEA002090
:103020004CEA012102EB0302A0FB0113A2F500020E
:10303000002918BF43F001035B0028BF4FEA3303A8
:1030400042EB22425FEA132C4CEBC2502EBFBCEB8A
:10305000436FB2F57C0F70474FEA036CBCF1004F31
:1030600008BF20F00100B2F57C0F38BF70470BD5C8
:1030700082F0FF0212F5803FC8BF704700F1C040E8
:10308000D8BF00F00040704700F5000C5FEA4C0C20
:1030900048BF7047B0F1C04000F073B890EA010F2C
:1030A0000CEAD11348BF42F48072624538BF6345D1
:1030B00004D280EA010000F00040704710B500F033
:1030C0001AF800BF8900013E00F007B800F009B807
:1030D0005FEA410C5FEA1C6C08D080EA010000F056
:1030E00050B85FEA400C5FEA1C6CF6D14FF000402C
:1030F000A0F5800070470EF1020E2EF0030E5EF870
:10310000044B244204D44FEA4102B2F17F4F11D85C
:103110004FEA4003B3F17F4F0CD80ED14FEAD07C79
:10312000B2F17F4F0CEB4C0C0CF1020C08BF4CEBD6
:10313000D17C04E04FF0080C01E04FEAD17C0CEBAD
:103140004C0324FA03F404F00704B4F1040C06D28F
:103150000EEB840CBDE810404CF0010C6047DFE83A
:103160000CF0070802024FF00040A0F5800010BDEF
:103170000846420018BFD2F1807288BF00F00040BC
:1031800010BDFF2141EAD050C005704751EA000C44
:1031900000F113801CF5000F58BFBCF5000F01D4DF
:1031A0008142704707D711F5000F58BF10F5000F87
:1031B00015D481427047894270471CF5000F04D531
:1031C000BCF5000FF7D5884270474FF0807C1CEBB0
:1031D000410F38BF1CEB400F01D28842704780EA94
:1031E000010081EA000180EA0100FFF7F8BE00005B
:1031F00090EA010F48BF81F000413FF552AD421AFD
:1032000004D882F00042A0EB020011444FEAD052F1
:103210004FF07F4C1CEA410FA2EBD15318BF9CEA40
:10322000026F4AD04FF0004C4CEA00204CEA0121DA
:1032300021FA03FCB0EB0C0C0FD412F0FE0F36D0C9
:103240005FEA4C001DD5001240EBC25038BF7047FA
:103250001CF03F0F18BF70470BE0A2F101025FEABC
:103260001C2040EBC25038BF70471CF07F0F18BFC6
:103270007047C3F12003994014BF401E20F00100A5
:10328000704780084FEA122308BF7047B0FA80FCED
:10329000A2EB0C02CCF1280C60FA0CF093EA122F8E
:1032A00004BF00EBC25070474FEAC3707047130A67
:1032B0005FEADC1008BF7047F6E79CEA026F04D0B3
:1032C00010EA5C0F08BF0020704710B5FFF713FF2E
:1032D00040DFF63E81F0004070470CF00F03092BF1
:1032E00008BF082000F059800A2B0BD0082B18BF0C
:1032F000704708BF1CF0400F0AD04FF000004FF09D
:10330000000170471CF0400F18BF4FF0004070479D
:103310001CF0100F08D020F0704300F07F4242EA0A
:10332000D3014FEA4370704700F0604021F07F42C4
:1033300042EA000201F07F4040EA727070474FF0AD
:10334000FF0C4CF4E06C1CEA11531CBF9CEA030C0C
:103350009445C2BFDA4201EB02517047002B0DD0F9
:10336000BCF1000F0FD0002A01F00041A4BF41F0D2
:10337000E04141F07F614FF00000704701F00041F3
:103380004FF00000704750EA01334FF09B0C18BF1C
:103390004CF0806C7FF4A4A870471CF4801F11D0FF
:1033A0001CF4E02F03D06FEACC31490070474FF096
:1033B0004050EFF3008222F0704242EA000282F3B2
:1033C000008870474FF000007047000000000000C8
:1033D00000010000010001000001000000000001E8
:1033E00001000000010000010001010000000100D7
:1033F00000000001000000000000000000000000CC
:1034000001000000000100010100000000000100B7
:1034100000010000000101000100000100000001A6
:10342000000001000000000000000000000000009B
:103430004C5555555555A53F7751C1166CC156BFD2
:103440009015CB19A001FA3EAD529C804F7E92BEE2
:10345000C4B1B4BD9EEE213ED43888BEE9FAA8BD01
:1034600000004054FB21F93F3163621A61B4D03D42
:103470000000601A61B4D03D7370032E8A19A33B1B
:103480000000002E8A19A33BC14920259A837B396D
:1034900000000000000000006E83F9A22915444ED0
:1034A000D15727FCC0DD34F5999562DB4190433C50
:1034B000AB6351FE61C5BBDE3A6E24B7E0D24D422C
:1034C000EA2E49061C92D1091CEB1DFE3EA729B12C
:1034D000F53582E88444BB2E26709CE9417E5FB4BA
:1034E00039D69139F43953838B5F849C3B28F9BDDD
:1034F000FF97F81F0F9805DE8B112FEF1F6D0A5AEB
:10350000CF7E366DB709CB27663F464F2DEA5F9ECB
:10351000C7BA27757BF1E5EBF739073DEA92528A86
:10352000B15FFB6B085D8D1FA6F810111111813F73
:10353000D561C119A0012ABF7DFEB157E31DC73E69
:10354000EB9C2B8AE6E55ABE7CD5CF5A3AD9E53DAD
:103550008084888C8F93979B9FA2A6AAAEB2B5B9A0
:10356000BDC0C4C8CBCFD3D6DADDE1E4E8EBEEEFE3
:10357000F0F1F2F3F4F5F6F7F8F8F9FAFAFBFCFCDF
:10358000FDFDFDFEFEFEFFFFFFFFFFFFFFFFFFFF54
:10359000FFFFFFFEFEFEFDFDFDFCFCFBFAFAF9F865
:1035A000F8F7F6F5F4F3F2F1F0EFEEEFF0F1F2F3F5
:1035B000F4F5F6F7F8F8F9FAFAFBFCFCFDFDFDFE70
:1035C000FEFEFFFFFFFFFFFFFFFFFFFFFFFFFFFE0E
:1035D000FEFEFDFDFDFCFCFBFAFAF9F8F8F7F6F546
:1035E000F4F3F2F1F0EFEEEBE8E4E1DDDAD6D3CF7D
:1035F000CBC8C4C0BDB9B5B2AEAAA6A29F9B9793D3
:103600008F8C8884807C7874716D6965615E5A5690
:10361000524E4B4743403C3835312D2A26231F1C40
:1036200018151211100F0E0D0C0B0A0908080706C9
:103630000605040403030302020201010101010162
:103640000101010101010102020203030304040557
:103650000606070808090A0B0C0D0E0F10111211AF
:10366000100F0E0D0C0B0A090808070606050404C6
:103670000303030202020101010101010101010131
:103680000101010202020303030404050606070800
:1036900008090A0B0C0D0E0F10111215181C1F2310
:1036A000262A2D3135383C4043474B4E52565A5E00
:1036B0006165696D7174787C9020C2022C24C2020D
:1036C000C01B3200E436000800000020E4000000C7
:1036D00028010008C8370008E4000020F4070000B3
:1036E000440100080000000000000000AAAA000039
:1036F00000000000000000000000000000000000CA
:1037000000000000000000000000000000000000B9
:1037100000000000000000000000000000000000A9
:103720000000000000000000000000000000000099
:103730000000000000000000000000000000000089
:103740000000000000000000000000000000000079
:103750000000000000000000000000000000000069
:103760000000000000000000000000000000000059
:103770000000000000000000000000000000000049
:103780000000000000000000000000000000000039
:103790000000000000000000000000000000000029
:1037A0000000000000000000000000000000000019
:1037B00000000000000000000102030401020304F5
:0837C0000607080902040608CF
:04000005080000ED02
:00000001FF
