:020000040800F2
:100000007006002089010008910100089301000892
:100010009501000897010008990100080000000000
:100020000000000000000000000000009B0100082C
:100030009D010008000000009F010008A1010008C8
:10004000A3010008A3010008A3010008A301000800
:10005000A3010008A3010008A3010008A3010008F0
:10006000A3010008A3010008A3010008A3010008E0
:10007000A3010008A3010008A3010008A3010008D0
:10008000A3010008A3010008A3010008A3010008C0
:10009000A3010008A3010008A301000871090008DA
:1000A000A3010008A3010008A3010008A3010008A0
:1000B000A3010008A3010008A3010008A301000890
:1000C000A3010008A3010008A3010008A301000880
:1000D000A3010008A3010008A3010008A301000870
:1000E000A3010008A3010008A301000800F002F822
:1000F00000F03AF80AA090E8000C82448344AAF188
:100100000107DA4501D100F02FF8AFF2090EBAE885
:100110000F0013F0010F18BFFB1A43F0010318473B
:100120004413000064130000103A24BF78C878C15B
:10013000FAD8520724BF30C830C144BF04680C60ED
:10014000704700000023002400250026103A28BF35
:1001500078C1FBD8520728BF30C148BF0B60704739
:100160001FB51FBD10B510BD00F031F81146FFF7E7
:10017000F7FF01F0FBF800F04FF803B4FFF7F2FFD0
:1001800003BC00F057F800000948804709480047C1
:10019000FEE7FEE7FEE7FEE7FEE7FEE7FEE7FEE737
:1001A000FEE7FEE704480549054A064B7047000094
:1001B000A50F0008ED000008700000207006002068
:1001C000700200207002002070477047704775462B
:1001D00000F02CF8AE4605006946534620F00700B3
:1001E000854618B020B5FFF7DDFFBDE820404FF091
:1001F00000064FF000074FF000084FF0000B21F011
:100200000701AC46ACE8C009ACE8C009ACE8C009DD
:10021000ACE8C0098D46704710B50446AFF30080C6
:100220002046BDE81040FFF7A8BF00000048704717
:100230001000002001491820ABBEFEE72600020096
:10024000704721B1826842F00102826003E0826857
:1002500022F001028260704721B1826842F480720C
:10026000826003E0826822F480728260704700003E
:1002700000B591B0002000F0F3FC012140F209200C
:1002800000F00AFD0121084600F0F6FC0120039071
:10029000002002900A90334801904FF4806007904C
:1002A00080200590202008902F480090801506900F
:1002B000002004904FF40050099069462B4800F04C
:1002C00039FB0121294800F029FB0220ADF840004C
:1002D00000208DF8430010A9254800F0EFFB012015
:1002E0008DF8310000200E904FF460200D9000201A
:1002F0000B9001208DF83C008DF830000BA91A48B6
:100300004C3800F04BF807230122092116484C38DD
:1003100000F06CF8012114484C38FFF792FF0121DE
:1003200011484C38FFF798FF0F484C3800F0BAF8E6
:1003300000BF0D484C3800F027F80028F9D10A48D2
:100340004C3800F0BFF800BF07484C3800F012F8F6
:100350000028F9D1012104484C3800F0A8F811B068
:1003600000BD00000E0000204C24014008000240A7
:10037000000C0140014600208A6802F004020AB124
:10038000012000E000207047014600208A6802F04A
:1003900008020AB1012000E00020704730B5024693
:1003A0000020002350680F4C20400D790C6844EA6F
:1003B00005242043506090680B4C2040D1E9025442
:1003C0002C434D7944EA450420439060D06A20F4E0
:1003D00070000C7C641EE4B2234340EA0350D062F8
:1003E00030BD0000FFFEF0FFFDF7F1FFF0B5044661
:1003F0000D4600200021092D11DDE068A5F10A0657
:1004000006EB4607072606FA07F18843A5F10A0618
:1004100006EB460603FA06F10843E0600CE02069AB
:1004200005EB4507072606FA07F1884305EB450665
:1004300003FA06F108432061072A0FDA606B561EA3
:1004400006EB86071F2606FA07F18843561E06EBC1
:10045000860605FA06F10843606322E00D2A0FDAEA
:10046000206BD61F06EB86071F2606FA07F1884386
:10047000D61F06EB860605FA06F10843206310E056
:10048000E06AA2F10D0606EB86071F2606FA07F1C1
:100490008843A2F10D0606EB860605FA06F108432D
:1004A000E062F0BD816841F008018160704721B1D0
:1004B000826842F4A002826003E0826822F4A00213
:1004C00082607047816841F0040181607047014695
:1004D000322901DA00207047B1F57A6F02DD41F26E
:1004E0009510F8E7A1F1320041F29413584340F619
:1004F000D863B0FBF3F290B2EDE7000010B503480B
:1005000000F067FBC0F3C21010BD0000000C0140FA
:100510001FB50121092000F0BFFB4FF46070ADF85A
:100520000C0048208DF80F0002208DF80E0003A962
:10053000164800F0C3FA17208DF8000000208DF84F
:1005400001008DF8020001208DF80300684600F0DC
:100550004FFB0721012000F091FA0821012000F053
:100560008DFA0921012000F089FA4FF460700190A2
:1005700001208DF80A0000208DF8080010208DF869
:10058000090001A800F030FA1FBD0000000C014076
:1005900010B5FFF7BDFF00F033F9602200210848D5
:1005A00000F068FE60220421054800F063FE60222E
:1005B0000821034800F05EFE00F0F2F810BD0000D4
:1005C000002C014010B504466948007801280AD182
:1005D00004EB4400674901EB4000674902680A6088
:1005E0008088888009E004EB4400644901EB400006
:1005F000614902680A60808888805F48007820B975
:10060000002211465E4800F00DFD5B48407820B99D
:10061000002211465A4800F014FD5748807820B94E
:1006200000220421564800F0FDFC5348C07820B950
:1006300000220421524800F004FD4F48007920B9FF
:10064000002208214E4800F0EDFC4B48407920B9CB
:10065000002208214A4800F0F4FC47480078464947
:10066000497809B9012100E000210840454909788D
:1006700009B9012100E00021084020B10122002138
:100680003F4800F0CFFC3C4840783B49097809B925
:10069000012100E0002108403A49497809B90121C7
:1006A00000E00021084020B104220021344800F07D
:1006B000C8FC314880783049C97809B9012100E087
:1006C000002108402F49897809B9012100E0002163
:1006D000084020B101220421294800F0A3FC26484B
:1006E000C0782549897809B9012100E00021084036
:1006F0002449C97809B9012100E00021084020B14E
:10070000042211461E4800F09CFC1B4800791A493F
:10071000497909B9012100E0002108401949097906
:1007200009B9012100E00021084020B1012208217F
:10073000134800F077FC104840790F49097909B94E
:10074000012100E0002108400E49497909B9012141
:1007500000E00021084020B104220821084800F0F0
:1007600070FC084804490A6802608988818010BDCD
:1007700000000020041400080100002034140008C8
:10078000002C01400700002001480078704700005D
:1007900000000020014908707047000000000020A0
:1007A00010B5002000F0B0F800221146114800F00A
:1007B00039FC002204210F4800F034FC00220821FB
:1007C0000C4800F02FFC002211460A4800F039FCCA
:1007D00000220421074800F034FC002208210548CB
:1007E00000F02FFC0020044908700448002101603B
:1007F000818010BD002C0140000000200700002077
:1008000000B58DB001210C2000F046FA4FF4604095
:10081000ADF8300003208DF8320018208DF8330039
:100820000CA9364800F04AF94FF4E060ADF830000A
:1008300003208DF8320018208DF833000CA93048C1
:1008400000F03CF90121C80200F026FA0020ADF8C2
:100850002400ADF8260041F29410ADF828000020E5
:10086000ADF82A008DF82C0009A9264800F02CFDCF
:100870000020ADF814000120ADF816000420ADF8FA
:1008800018000020ADF81A00ADF81C00ADF81E00ED
:10089000ADF82000ADF8220005A91A4800F0FCFBD5
:1008A00005A9184800F044FC05A9164800F092FC80
:1008B0004FF40060ADF804004010ADF806000020D1
:1008C000ADF808004820ADF80A004FF48040ADF8BC
:1008D00010008010ADF80C000020ADF80E0001A94A
:1008E000084800F08FFB0121064800F0B9FB012108
:1008F000044800F0C1FB0DB000BD0000000C014039
:1009000000080140002C014003490880091D0880AF
:10091000091D088070470000342C014021B1026895
:1009200042F00102026004E002684FF6FE731A40D2
:100930000260704710B50022026847F6F0739A43D0
:100940000C6A8B6823430C6923434C6923438C69ED
:100950002343CC6923434C6A23438C6A23431A43C1
:100960000260CB6843600B6883604B68C36010BD56
:1009700010B5802000F024F804464FF4807000F099
:100980001FF804434FF4007000F01AF804437CB1E0
:10099000802000F00FF84FF4807000F00BF84FF457
:1009A000007000F007F8FFF7A9FD0446FFF70AFE04
:1009B00010BD0000014908607047000014040140A8
:1009C000014600200022074B1B6803EA0102054B89
:1009D00014331B680B4013B10AB1012000E0002062
:1009E0007047000000040140002123498279002A59
:1009F0003AD00A46126803689A430B461A600A1DE9
:100A0000126803689A430B1D1A60027911440A6840
:100A100003681A430A60184A0832126803689A4346
:100A2000154B08331A601A1D126803689A43124B5B
:100A30000C331A604279102A0ED11A1F126803680B
:100A40001A430D4B08331A601A1D126803681A43C3
:100A5000094B0C331A600DE00749427911440A68CA
:100A600003681A430A6005E0027911440A680368C2
:100A70009A430A60704700000004014030B500222C
:100A80008B071C0F0F2303FA04F20B4B8C1053F847
:100A900024309343084C8D1044F8253023468C10A5
:100AA00053F824308C07240F00FA04F42343024C3B
:100AB0008D1044F8253030BD080001402DE9F0418B
:100AC000024600250026002000230024002791F87C
:100AD00003C00CF00F0591F803C00CF0100CBCF132
:100AE000000F03D091F802C04CEA050591F800C050
:100AF000BCF1000F31D0146800202BE04FF0010C46
:100B00000CFA00F3B1F800C00CEA03069E4220D1B3
:100B100083004FF00F0C0CFA03F7BC4305FA03FCFB
:100B20004CEA040491F803C0BCF1280F06D14FF041
:100B3000010C0CFA00FCC2F814C00AE091F803C0E2
:100B4000BCF1480F05D14FF0010C0CFA00FCC2F8C3
:100B500010C0401C0828D1D31460B1F800C0BCF10B
:100B6000FF0F34DD546800202EE000F1080C4FF038
:100B7000010808FA0CF3B1F800C00CEA03069E4223
:100B800021D183004FF00F0C0CFA03F7BC4305FA98
:100B900003FC4CEA040491F803C0BCF1280F05D112
:100BA00000F1080C08FA0CF8C2F8148091F803C0A0
:100BB000BCF1480F07D100F1080C4FF0010808FA0A
:100BC0000CF8C2F81080401C0828CED35460BDE851
:100BD000F0810146886880B2704702460020936821
:100BE0000B400BB1012000E000207047016170470D
:100BF00070B5002100230F22C47804B3154C24687B
:100C000004F4E064C4F5E064210AC1F10403CA40BD
:100C1000447804FA03F184781440214309010E4C0E
:100C20000678A155047804F01F050124AC4005782E
:100C30006D11AD0005F1E025C5F8004109E004782B
:100C400004F01F050124AC40044D0678761145F8E8
:100C5000264070BD0CED00E000E400E080E100E023
:100C600001460020034A506820F440400843506089
:100C7000704700000010024029B1064A5269024341
:100C8000044B5A6104E0034A52698243014B5A61A2
:100C9000704700000010024029B1064A92690243E1
:100CA000044B9A6104E0034A92698243014B9A61C2
:100CB00070470000001002400F48006840F001003B
:100CC0000D490860084640680C4908400A494860D8
:100CD000084600680A490840074908600846006855
:100CE00020F4802008600846406820F4FE00486038
:100CF0004FF41F0088607047001002400000FFF8AA
:100D0000FFFFF6FE10B501460022002300204A1125
:100D1000012A02D1094C236806E0022A02D1074CBD
:100D2000236A01E0054C636A01F01F02012494402C
:100D30001C400CB1012000E0002010BD001002405A
:100D40000248406800F00C007047000000100240AC
:100D500001460020034A506820F0F000084350602C
:100D600070470000001002401149096821F48031E9
:100D70000F4A11601146096821F480211160B0F515
:100D8000803F03D0B0F5802F0ED106E008490968F6
:100D900041F48031064A116007E00549096841F4D1
:100DA000A021034A116000E000BF00BF70470000AF
:100DB0000010024001460020034A506820F4E06021
:100DC00008435060704700000010024001460020B8
:100DD000034A506820F4605040EAC10050607047F8
:100DE00000100240014908667047000000004242BE
:100DF00002460020044B586820F47C1042EA0103AC
:100E00001843014B58607047001002400146002013
:100E1000034A506820F00300084350607047000008
:100E20000010024038B5002000900024002500BFCB
:100E30003120FFF767FF05460098401C009000989E
:100E4000B0F5A06F01D0002DF2D03120FFF75AFF8E
:100E500008B1012400E00024204638BD10B500F0A0
:100E600031F810BD10B5FFF727FF4FF48030FFF7C2
:100E70007BFFFFF7D7FF0446012C1FD10020FFF7AF
:100E800067FF0020FFF7A2FFA002FFF793FF4FF4D8
:100E9000E0112004FFF7ACFF0120FFF7A3FF00BF24
:100EA0003920FFF72FFF0028FAD00220FFF7AEFF0E
:100EB00000BFFFF745FF0828FBD101E000BFFEE7B8
:100EC00010BD00000CB50020019000903348006870
:100ED00040F480303149086000BF3048006800F4B9
:100EE000003000900198401C0190009818B90198BA
:100EF000B0F5A06FF1D12948006800F4003010B1BE
:100F00000120009001E0002000900098012843D1CA
:100F10002348006840F01000214908600846006836
:100F200020F0030008600846006840F002000860F6
:100F30001A484068194948600846406848600846B1
:100F4000406840F4806048600846406820F47C10A7
:100F500048600846406840F4E81048600846006869
:100F600040F08070086000BF0C48006800F000701E
:100F70000028F9D00948406820F00300074948607C
:100F80000846406840F00200486000BF03484068DF
:100F900000F00C000828F9D10CBD00000010024040
:100FA0000020024010B51348006840F001001149CC
:100FB000086008464068104908400E4948600846E5
:100FC00000680E4908400B4908600846006820F494
:100FD000802008600846406820F4FE0048604FF416
:100FE0001F008860FFF73AFF4FF000600449086077
:100FF00010BD0000001002400000FFF8FFFFF6FEE9
:1010000008ED00E00A884B881A438B881A43CB8886
:101010001A430B891A434B891A438B891A43A0F848
:101020004420704730B5002301248C40A3B2048CC7
:101030009C430484048C02FA01F5ADB22C43048471
:1010400030BD30B5002304248C40A3B2048C9C43F3
:101050000484048C02FA01F5ADB22C43048430BD43
:1010600021B1028842F00102028004E002884FF6BA
:10107000FE731A400280704731B1B0F8442042F448
:101080000042A0F8442005E0B0F84420C2F30E026C
:10109000A0F844207047000070B50024002200230F
:1010A000058C4FF6FE7635400584028C8388048BD0
:1010B0004FF68F752C40B51E2C400D882C43751EA5
:1010C0002A400D892A434D882A43144DA8420BD04B
:1010D000134DA84208D0134DA84205D0124DA84286
:1010E00002D0124DA84213D14FF6F7752A404D8910
:1010F0002A434FF6FB752A408D882A434FF6FF6539
:101100002B404FF6FF552B408D892B43CD892B4328
:1011100083800483CD888586028470BD002C0140C5
:1011200000340140004001400044014000480140BB
:1011300070B5002400220023058C4FF6EF76354071
:101140000584028C8388048B48F6FF752C404FF68B
:10115000FF452C400D884FF6FF7606EA05252C4307
:101160004FF6DF752A400D8906EA05152A434D889A
:1011700006EA05152A43154DA84202D0144DA8428F
:101180001DD14FF67F752A404D894FF6FF7606EA4E
:1011900005152A434FF6BF752A408D8806EA0515C6
:1011A0002A434FF6FF352B404FF2FF752B408D89B8
:1011B00006EA85052B43CD8906EA85052B43838006
:1011C0000483CD880587028470BD0000002C014097
:1011D0000034014070B5002400220023058C4FF636
:1011E000FF6635400584028C8388848B4FF68F75AB
:1011F0002C404FF6FC752C400D882C434FF6FF55C4
:101200002A400D894FF6FF7606EA05252A434D88C8
:1012100006EA05252A43154DA84202D0144DA842DE
:101220001DD14FF2FF752A404D894FF6FF7606EA31
:1012300005252A434FF6FF352A408D8806EA052505
:101240002A434EF6FF752B404DF6FF752B408D89D6
:1012500006EA05152B43CD8906EA05152B43838045
:101260008483CD888587028470BD0000002C0140F6
:101270000034014070B503460020002418461830A1
:1012800001258D40ACB21D8CA5431D8409B10829F0
:1012900009D100EB6100056825F07005056005685F
:1012A000154305600EE00D1FC5F34E052844056883
:1012B00025F4E045056005684FF6FF7606EA02264C
:1012C0003543056070BD0000002202881D4B984226
:1012D0000ED01D4B98420BD0B0F1804F08D01B4B65
:1012E000984205D01A4B984202D01A4B984204D12A
:1012F0004FF68F731A404B881A43174B984207D00A
:10130000164B984204D04FF6FF431A40CB881A433D
:1013100002808B8883850B8803850A4B98420BD00B
:10132000094B984208D00E4B984205D00D4B98427D
:1013300002D00D4B984201D10B7A038601238382A0
:1013400070470000002C01400034014000040040C0
:1013500000080040000C0040001000400014004055
:1013600000400140004401400048014008B5FFF73B
:1013700079FDFEF77DFFFFF70BF901210820FFF74C
:101380008BFC0120ADF8000048208DF803000220FE
:101390008DF8020069461948FFF790FB01211748B4
:1013A000FFF724FC28E016480088C8281BDDFFF75B
:1013B000EBF980B901211148FFF70FFC18B10120AA
:1013C000FFF7E8F902E00220FFF7E4F9FFF796F8EB
:1013D0000446FFF7F7F80A490888FFF778F804464B
:1013E000FFF792FA08E0FFF7CFF928B10448008828
:1013F000322801DAFFF7D4F9D5E70000000C0140EC
:101400000E000020000000000000000100000100AC
:1014100001000001000000000001010000000100C7
:1014200000010001010000000100000000010000B7
:1014300000000000000000000000010000000001AA
:101440000001010000000000010000010000000197
:101450000100010000010000000100000100000087
:1014600000000000841400080000002010000000AC
:1014700028010008941400081000002060060000F5
:10148000440100080000000000000000000000000F
:041490000000AAAA04
:04000005080000ED02
:00000001FF
